:020000022000DC
:10700000F8F400204D5E030069B80500215E03001E
:10701000215E0300215E0300215E030000000000EA
:10702000000000000000000000000000715F03008D
:10703000215E030000000000DD5E0300215E03000E
:1070400091610300B1AE04009161030091610300FE
:10705000916103009161030091610300916103005C
:10706000916103009161030091610300916103004C
:10707000916103009161030091610300916103003C
:10708000916103009161030091610300916103002C
:10709000916103009161030091610300916103001C
:1070A000916103009161030091610300916103000C
:1070B00091610300916103009161030091610300FC
:1070C00091610300916103009161030091610300EC
:1070D00091610300916103009161030091610300DC
:1070E00091610300916103009161030091610300CC
:1070F00091610300916103009161030091610300BC
:1071000081F0004102E000BF83F0004330B54FEA58
:1071100041044FEA430594EA050F08BF90EA020FC5
:107120001FBF54EA000C55EA020C7FEA645C7FEA58
:10713000655C00F0E2804FEA5454D4EB5555B8BF7B
:107140006D420CDD2C4480EA020281EA030382EAEC
:10715000000083EA010180EA020281EA0303362D7E
:1071600088BF30BD11F0004F4FEA01314FF4801C51
:107170004CEA113102D0404261EB410113F0004F63
:107180004FEA03334CEA133302D0524263EB43031A
:1071900094EA050F00F0A780A4F10104D5F1200EB8
:1071A0000DDB02FA0EFC22FA05F2801841F1000113
:1071B00003FA0EF2801843FA05F359410EE0A5F1E7
:1071C00020050EF1200E012A03FA0EFC28BF4CF018
:1071D000020C43FA05F3C01851EBE37101F00045CE
:1071E00007D54FF0000EDCF1000C7EEB00006EEBDB
:1071F0000101B1F5801F1BD3B1F5001F0CD3490865
:107200005FEA30004FEA3C0C04F101044FEA4452BB
:1072100012F5800F80F09A80BCF1004F08BF5FEA42
:10722000500C50F1000041EB045141EA050130BD22
:107230005FEA4C0C404141EB0101013C28BFB1F534
:10724000801FE9D291F0000F04BF01460020B1FA7F
:1072500081F308BF2033A3F10B03B3F120020CDA52
:107260000C3208DD02F1140CC2F10C0201FA0CF030
:1072700021FA02F10CE002F11402D8BFC2F1200C95
:1072800001FA02F120FA0CFCDCBF41EA0C0190404B
:10729000E41AA2BF01EB0451294330BD6FEA040494
:1072A0001F3C1CDA0C340EDC04F11404C4F120027F
:1072B00020FA04F001FA02F340EA030021FA04F391
:1072C00045EA030130BDC4F10C04C4F1200220FAE8
:1072D00002F001FA04F340EA0300294630BD21FA26
:1072E00004F0294630BD94F0000F83F4801306BFEC
:1072F00081F480110134013D4EE77FEA645C18BFE0
:107300007FEA655C29D094EA050F08BF90EA020F76
:1073100005D054EA000C04BF1946104630BD91EA6E
:10732000030F1EBF0021002030BD5FEA545C05D171
:107330004000494128BF41F0004130BD14F58004B0
:107340003CBF01F5801130BD01F0004545F0FE4124
:1073500041F470014FF0000030BD7FEA645C1ABF59
:10736000194610467FEA655C1CBF0B46024650EA90
:10737000013406BF52EA033591EA030F41F40021BC
:1073800030BD00BF90F0000F04BF0021704730B542
:107390004FF4806404F132044FF000054FF0000117
:1073A00050E700BF90F0000F04BF0021704730B5D8
:1073B0004FF4806404F1320410F0004548BF4042AD
:1073C0004FF000013EE700BF42004FEAE2014FEA02
:1073D00031014FEA02701FBF12F07F4393F07F4FDD
:1073E00081F06051704732F07F4208BF704793F0E0
:1073F0007F4F04BF41F40021704730B54FF46074F3
:1074000001F0004521F000411CE700BF50EA0102F5
:1074100008BF704730B54FF000050AE050EA01029E
:1074200008BF704730B511F0004502D5404261EB0E
:1074300041014FF4806404F132045FEA915C3FF44F
:10744000D8AE4FF003025FEADC0C18BF03325FEAEC
:10745000DC0C18BF033202EBDC02C2F1200300FA9D
:1074600003FC20FA02F001FA03FE40EA0E0021FAC2
:1074700002F11444BDE600BF70B54FF0FF0C4CF4B0
:10748000E06C1CEA11541DBF1CEA135594EA0C0F62
:1074900095EA0C0F00F0DEF82C4481EA030621EA9D
:1074A0004C5123EA4C5350EA013518BF52EA0335D8
:1074B00041F4801143F4801338D0A0FB02CE4FF08A
:1074C0000005E1FB02E506F00042E0FB03E54FF0BA
:1074D0000006E1FB03569CF0000F18BF4EF0010EB2
:1074E000A4F1FF04B6F5007F64F5407404D25FEAAE
:1074F0004E0E6D4146EB060642EAC62141EA555161
:107500004FEAC52040EA5E504FEACE2EB4F1FD0CA2
:1075100088BFBCF5E06F1ED8BEF1004F08BF5FEA20
:10752000500E50F1000041EB045170BD06F00046D2
:1075300046EA010140EA020081EA0301B4EB5C047F
:10754000C2BFD4EB0C0541EA045170BD41F4801177
:107550004FF0000E013C00F3AB8014F1360FDEBF9C
:10756000002001F0004170BDC4F10004203C35DA78
:107570000C341BDC04F11404C4F1200500FA05F3FB
:1075800020FA04F001FA05F240EA020001F000429C
:1075900021F0004110EBD37021FA04F642EB060112
:1075A0005EEA430E08BF20EAD37070BDC4F10C043C
:1075B000C4F1200500FA04F320FA05F001FA04F200
:1075C00040EA020001F0004110EBD37041F10001EC
:1075D0005EEA430E08BF20EAD37070BDC4F12005F7
:1075E00000FA05F24EEA020E20FA04F301FA05F25F
:1075F00043EA020321FA04F001F0004121FA04F207
:1076000020EA020000EBD3705EEA430E08BF20EAD6
:10761000D37070BD94F0000F0FD101F00046400010
:1076200041EB010111F4801F08BF013CF7D041EA92
:10763000060195F0000F18BF704703F00046520096
:1076400043EB030313F4801F08BF013DF7D043EA67
:107650000603704794EA0C0F0CEA135518BF95EA1D
:107660000C0F0CD050EA410618BF52EA4306D1D1A4
:1076700081EA030101F000414FF0000070BD50EAC3
:10768000410606BF1046194652EA430619D094EA4D
:107690000C0F02D150EA013613D195EA0C0F05D137
:1076A00052EA03361CBF104619460AD181EA03018B
:1076B00001F0004141F0FE4141F470014FF0000043
:1076C00070BD41F0FE4141F4780170BD70B54FF0DE
:1076D000FF0C4CF4E06C1CEA11541DBF1CEA13555E
:1076E00094EA0C0F95EA0C0F00F0A7F8A4EB050440
:1076F00081EA030E52EA03354FEA013100F0888037
:107700004FEA03334FF0805545EA131343EA1263FF
:107710004FEA022245EA111545EA10654FEA0026B4
:107720000EF000419D4208BF964244F1FD0404F56D
:10773000407402D25B084FEA3202B61A65EB0305C9
:107740005B084FEA32024FF480104FF4002CB6EB86
:10775000020E75EB030E22BFB61A754640EA0C0006
:107760005B084FEA3202B6EB020E75EB030E22BF46
:10777000B61A754640EA5C005B084FEA3202B6EB87
:10778000020E75EB030E22BFB61A754640EA9C0046
:107790005B084FEA3202B6EB020E75EB030E22BF16
:1077A000B61A754640EADC0055EA060E18D04FEAD4
:1077B000051545EA16754FEA06164FEAC30343EA74
:1077C00052734FEAC2025FEA1C1CC0D111F4801F41
:1077D0000BD141EA00014FF000004FF0004CB6E73A
:1077E00011F4801F04BF01430020B4F1FD0C88BFD9
:1077F000BCF5E06F3FF6AFAEB5EB030C04BFB6EBE4
:10780000020C5FEA500C50F1000041EB045170BDD6
:107810000EF0004E4EEA113114EB5C04C2BFD4EB03
:107820000C0541EA045170BD41F480114FF0000E87
:10783000013C90E645EA060E8DE60CEA135594EA03
:107840000C0F08BF95EA0C0F3FF43BAF94EA0C0F06
:107850000AD150EA01347FF434AF95EA0C0F7FF47B
:1078600025AF104619462CE795EA0C0F06D152EACF
:1078700003353FF4FDAE1046194622E750EA4106B3
:1078800018BF52EA43067FF4C5AE50EA41047FF4C4
:107890000DAF52EA43057FF4EBAE12E74FEA410227
:1078A00012F5001215D211D56FF47873B3EB625252
:1078B00012D94FEAC12343F0004343EA505311F079
:1078C000004F23FA02F018BF404270474FF000000B
:1078D000704750EA013005D111F0004008BF6FF049
:1078E000004070474FF00000704700BF4FEA410270
:1078F000B2F1E04324BFB3F5001CDCF1FE5C0DD90E
:1079000001F0004C4FEAC0024CEA5070B2F1004F57
:1079100040EB830008BF20F00100704711F0804F5A
:1079200021D113F13872BCBF01F00040704741F41F
:1079300080114FEA5252C2F11802C2F1200C10FA23
:107940000CF320FA02F018BF40F001004FEAC12307
:107950004FEAD32303FA0CFC40EA0C0023FA02F3AB
:107960004FEA4303CCE77FEA625307D150EA013381
:107970001EBF4FF0FE4040F44000704701F0004051
:1079800040F0FE4040F40000704700BF7BB972B980
:107990000029BEBF00204FF0004106E008BF0028CC
:1079A0001CBF6FF000414FF0FF3000F057B8ADF151
:1079B000080C6DE904CE002909DB002B1ADB00F06E
:1079C000D7F8DDF804E0DDE9022304B07047404257
:1079D00061EB4101002B1BDB00F0CAF8DDF804E08D
:1079E000DDE9022304B0404261EB4101524263EB06
:1079F00043037047524263EB430300F0B9F8DDF8EC
:107A000004E0DDE9022304B0404261EB410170472C
:107A1000524263EB430300F0ABF8DDF804E0DDE92C
:107A2000022304B0524263EB4303704753B94AB98F
:107A3000002908BF00281CBF4FF0FF314FF0FF3076
:107A400000F00CB8ADF1080C6DE904CE00F090F830
:107A5000DDF804E0DDE9022304B07047704700BFA1
:107A60004FF0FF3C06E000BF4FF0010C02E000BF0A
:107A70004FF0010C4DF804CD4FEA410C7FEA6C5CED
:107A80004FEA430C18BF7FEA6C5C1BD001B050EA90
:107A9000410C0CBF52EA430C91EA030F02BF90EA7B
:107AA000020F0020704710F1000F91EA030F58BF3A
:107AB000994208BF90422CBFD8176FEAE37040F09C
:107AC000010070474FEA410C7FEA6C5C02D150EA3A
:107AD000013C07D14FEA430C7FEA6C5CD6D152EAF5
:107AE000033CD3D05DF8040B704700BF84461046BA
:107AF00062468C461946634600E000BF01B5FFF7B9
:107B0000B7FF002848BF10F1000F01BD4DF808ED88
:107B1000FFF7F4FF0CBF012000205DF808FB00BF59
:107B20004DF808EDFFF7EAFF34BF012000205DF8B3
:107B300008FB00BF4DF808EDFFF7E0FF94BF012000
:107B400000205DF808FB00BF4DF808EDFFF7CEFF01
:107B500094BF012000205DF808FB00BF4DF808ED40
:107B6000FFF7C4FF34BF012000205DF808FB00BF11
:107B70002DE9F04786468C460846089E1546744611
:107B80001946002B40F0C2808542B2FA82F245D9F4
:107B90004AB1C2F1200300FA02FC2EFA03F3954029
:107BA00043EA0C0C94404FEA154EA8B2BCFBFEF819
:107BB000230C0EFB18CC08FB00F943EA0C43994553
:107BC00028D9EB1808F1FF3704D2994502D9A8F15A
:107BD00002072B44A3EB0903A4B2B3FBFEFC0EFB8C
:107BE0001C330CFB00F044EA0344A04214D92C19C6
:107BF0000CF1FF3304D2A04202D9ACF102032C44B1
:107C0000241A43EA07401EB1D44000233460736055
:107C1000BDE8F0874746DDE76346F1E792BB431BCB
:107C200001214FEA154EAFB2B3FBFEFC200C0EFB58
:107C30001C330CFB07F840EA0343984562D9EB1864
:107C40000CF1FF3004D2984502D9ACF102002B446C
:107C5000A3EB0803A4B2B3FBFEFC0EFB1C330CFB2E
:107C600007F744EA0344A7424ED92C190CF1FF331D
:107C700004D2A74202D9ACF102032C44E41B43EA2C
:107C80000040C0E7C2F1200320FA03F19540904084
:107C90002EFA03F303434FEA154EAFB2B1FBFEFCDD
:107CA0000EFB1C10190C0CFB07F841EA004188453B
:107CB00004FA02F422D969180CF1FF3004D2884585
:107CC00002D9ACF102002944A1EB08019BB2B1FB3F
:107CD000FEFC0EFB1C110CFB07F743EA01439F421D
:107CE0000ED9EB180CF1FF3104D29F4202D9ACF14E
:107CF00002012B44DB1B41EA004192E76046E3E7C7
:107D00006146F7E76046A3E76346B7E7834206D9D3
:107D100016B9002108467BE7C6E900E0F9E7B3FAA7
:107D200083F78FB9834201D3724508D8BEEB0204B2
:107D300060EB030301209C461EB9002168E738462A
:107D4000FAE7C6E9004CF8E7C7F1200CBB4022FA7D
:107D50000CF41C432EFA0CF120FA0CF3B84001434A
:107D60004FEA14490EFA07F5B3FBF9F81FFA84FE3F
:107D700009FB18300B0C08FB0EFA43EA00439A4546
:107D800002FA07F240D9E31808F1FF3004D29A450D
:107D900002D9A8F102002344A3EB0A0389B2B3FB82
:107DA000F9F809FB183308FB0EFE41EA03418E4542
:107DB0002CD9611808F1FF3304D28E4502D9A8F1FD
:107DC0000203214443EA0040A0FB0298A1EB0E010C
:107DD0004145CE46434602D306D14D4504D2B9EBC8
:107DE000020E68EB04030138002EA6D0B5EB0E029C
:107DF00061EB030101FA0CFC22FA07F34CEA0303DE
:107E0000F940C6E9003198E74046C5E74346D9E75F
:107E100010F8012B11F8013B012A28BF9A42F7D034
:107E2000D01A7047034611F8012B03F8012B002AE2
:107E3000F9D17047034613F8012B002AFBD1181A19
:107E4000013870470000000038B52DED028B044664
:107E5000006C70B3FFF7A6FA19A3D3E90023FFF76C
:107E60000BFB154B0022FFF731FC41EC180BB0EE79
:107E7000480AF0EE680A03F093F9104B002251EC27
:107E8000100BFFF7F9FAFFF709FDB0EE480AF0EE24
:107E9000680A054603F0D4FB084B51EC100B002296
:107EA000FFF7EAFAFFF7FAFCC4E91450BDEC028BC5
:107EB00038BD4FF47A75F7E70080664000408F4088
:107EC000EA2E4454FB210940F7B5B44DD5F85C3196
:107ED000996811F0010124D101AA40F603400FF086
:107EE000C1F9044600286DD1019CE3681B78ABB949
:107EF00010F070FCBFF35B8FD5F8D430BFF35B8F0D
:107F000005F1D40203F00903BFF35B8F52E8001FB1
:107F100042E800300028F9D1BFF35B8F204626F0FD
:107F2000B7FA01AA002141F203000FF09BF90446C1
:107F3000002847D1019B9A4EDA68D2F80100D2F8A6
:107F4000051003C6184626F0A3FA214601AA41F2FD
:107F500001000FF087F90446A0BB0198C3685A7866
:107F600085F870205A88A5F872201A7985F8712052
:107F7000B3F80720A5F87420B3F80530A5F87630DB
:107F800026F086FA214601AA41F202000FF06AF9B2
:107F90000446B8B9019FFA68531C41321868596801
:107FA000344603C4083393422646F7D17D4833F064
:107FB00038FD384626F06CFA95F87C305F0604D41C
:107FC0006FF01204204603B0F0BD01AA002142F276
:107FD00003000FF047F904460028F3D1019B724ECD
:107FE000DA68D2F80100D2F8051003C6184626F068
:107FF0004FFA214601AA42F202000FF033F904467B
:108000000028DFD1019CE368B3F8012091B249B1A7
:10801000D97839B1A5F80421DA78114606F128009B
:108020003AF022FA204626F033FA95F87C6016F0F2
:10803000200618D1022140F66D400FF0B7F8044633
:10804000002800F0A28002210C3037F061FF0123EC
:10805000037046702146324640F66D400FF002F93B
:1080600004460028AED195F89C301E0712D501AA0F
:10807000002142F21C000FF0F5F804460028A1D1BF
:108080000198C368D3F80120D3F80530C5E9382337
:1080900026F0FEF995F8D8305C060FD501AA00212C
:1080A00042F22A000FF0DEF8044600288AD1019837
:1080B000C3685B7885F8203126F0EAF9082142F29E
:1080C00001000FF073F8044600285ED008210C3040
:1080D00037F01EFF95F8D81011F0400F024640F21D
:1080E000022308BF032388074CBF43F02C0043F052
:1080F0000C0095F8D9308F0648BF40F0400013F0CF
:10810000090F95F8A23018BF40F4006003F0060391
:10811000CE0748BF40F01000062B08BF40F4C070E7
:10812000002133F042FE2146002242F201000FF00E
:1081300099F8044600287FF445AF95F87C30B5F8EF
:108140000411980624D4C9B901AA41F205000FF020
:1081500089F8044600287FF435AFB5F80431019C56
:108160004BB9E368B3F80120A5F804219A880F48B9
:1081700011463AF079F9204626F08AF9082140F6AE
:1081800001400FF013F8044690B96FF0680419E746
:108190000029F3D16FF0040414E700BF6001002050
:1081A000D8010020E00100203802002068020020F1
:1081B00008210C3037F0ACFE95F8D830D9070246CC
:1081C00053BF4FF000512CA1D1E90001284833F0F2
:1081D000ECFD2146002240F601400FF043F8044632
:1081E00000287FF4EFAE014601AA4FF601400FF0E0
:1081F00039F8044620BB019826F04AF9214601AA25
:108200004FF602400FF02EF80446C8B90198C36833
:10821000B3F80130A5F8C13026F03AF995F8C1302D
:108220005B070DD501AA21464FF603400FF01AF85F
:1082300030B90198C3685B7885F8C03026F028F91A
:1082400034F085F9044600287FF4BCAE11F012FD2D
:10825000044600287FF4B6AEEB79002B3FF4B2AEB3
:108260000821044833F0F7FC0FF08AFBAAE600BFB0
:108270001088000234020020908800020080002054
:108280002DE9F843D0E90C35D0F82C805C19303456
:10829000A0450F46164619D81D4DA3FB05011AA38C
:1082A000D3E90023FFF7C2FB0346A4EB0800A0FBC1
:1082B000050123F07F4414A3D3E90023FFF7B6FBA5
:1082C00020F07F403C603060BDE8F883DFF84090EC
:1082D0000DA3D3E90023A8FB0901FFF7A7FB044680
:1082E00005F1300008A3D3E90023A0FB0901FFF743
:1082F0009DFB24F07F4420F07F403C603060BDE86F
:10830000F88300BFAFF300808D49FD1A070000001D
:1083100000CA9A3B000000009FED0D7B124B134AF0
:108320001348144910B483ED007B9FED0B7B82ED65
:10833000007B9FED0B7B104B4FF0FF34002281ED53
:10834000007B04601A605DF8044B18F069BD00BF43
:10835000FFFFFFFFFF1F0000000000000000000003
:108360001F00000000000000E0020020F04000209C
:10837000D0850020D8020020C88500200000000021
:10838000002800F05F812DE9F04FB54C94F86A2089
:1083900012F001058DB040F0A78194F82500FF236D
:1083A00000F0030084F8263022F062F894F86A00A6
:1083B000420727D494F8292094F8353004EB820240
:1083C00004EB8303D66AD3F8388086B1A4483146DB
:1083D0001AF0AAFC33785B0605D5062115F050FC8F
:1083E000002800F083819E4841461AF09DFC3378B6
:1083F00013F00E0F40F0B780236A93B10C200DB03C
:10840000BDE8F08F2A4604F16B01C0F3C00022F0F2
:10841000CBF9FF2884F82600CCD0284622F06EF84D
:10842000C8E717F027FE8146002800F0718117F099
:108430002DFE8246002800F068811BF0A3F8054657
:10844000002800F06781D0F888004FF6FF732B8575
:1084500005F11C0B002800F04F8105F1780105F1B2
:108460007C0215F019FCB5F876307E4A23F4EF63F0
:1084700023F0070343F4887343F00103A5F8763033
:108480001346D2F80120C5F89B21C5F8A12113F8A5
:10849000012B9B88A5F89F31A5F8A53195F89A3155
:1084A00002F0010262F3000362F3410385F89A319E
:1084B00095F8393003F03F0363F07F0385F83930D6
:1084C00095F88E3023F0070385F88E3095F83C3010
:1084D00023F00703002785F83C304FF4C023C5F88C
:1084E00088312846C5E91277C5F88870A5F88C70E0
:1084F0006F86C5F82E7085F83B702F65A5F88E71D4
:10850000A5F884711DF00CFE85F85071C5F85491E2
:108510001BF0F6FA95F8943160F3020385F8943174
:108520001BF0F4FA95F8943160F3C50385F89431A3
:1085300095F8803167F3410385F8803101212846A1
:108540001BF044FF05F1D4001DF072FBC4E9189A3A
:10855000C4F820B0C5E905772F70ED6123F056FA15
:10856000002840F0C58094F824300121C3F3420371
:108570000DF12B008DF82B3015F02CFD0246002854
:1085800062D098F8011030461AF090F9312336493C
:10859000A360364BB4F86870A0FB01010025C01839
:1085A00041F107012CA3D3E90023C4E90555257047
:1085B0006560E560FFF73AFA206117F03FF800F1D7
:1085C00009083FB9357805F00F05A5F10105B5FAA1
:1085D00085F56D0994F82400236965F3000010F017
:1085E000010584F824004BD0214A09920020106034
:1085F0000225204A204F04930BAE019305920321DC
:10860000CDE90200069443460090089607972A4653
:108610000B9516F0B1FE314617F0F2FDA0B91749DF
:1086200005914AF2D8330093CDE90300CDE901006A
:108630000797089606944346012203210B9516F0EE
:1086400067FE43E01AF07EB8236A002B3FF4D6AEF3
:108650001AF036F8D2E600BF8D49FD1A0700000077
:10866000888600208AA2060000CA9A3B8C49FD1A1F
:108670007C86002029290400C9F703003D2404005A
:108680002B4A2C48049303F2471306940295912138
:108690001360A7FB000301FB0731274B0793274B10
:1086A00005934FF6FF730992022703930BAE1EA3A7
:1086B000D3E900230B970896FFF7B8F94346CDE9B5
:1086C00000503A462846032116F056FE314617F070
:1086D00097FD0028B8D194F86A3043F0010384F87C
:1086E0006A301AF043FD60B1002088E6122086E669
:1086F00019F0E6FF032082E605F18000C5F8880046
:10870000ABE6012021F096FEEEE7484617F0B8FCF4
:10871000072074E6504617F0BFFC484617F0B0FC3F
:10872000F6E700BFAFF300808D49FD1A0700000097
:108730007C860020002AE784C9F703002929040069
:1087400070B590F824308AB0C3F342030D46044656
:1087500001210DF1230016468DF8233015F03AFC67
:108760007178024628461AF0A1F81F491F4AA0FB5B
:108770000131981841F1070119A3D3E90023FFF74C
:1087800055F923699842054621D21B1A002201920D
:10879000174A0293174BA21AA3FB02320221920935
:1087A00000230A4409AE099113490591CDE9033329
:1087B0000321D2B206960093184616F03DFE3146CC
:1087C00017F01EFD38B9256100200AB070BDFBD935
:1087D000C21A0023DBE70C200AB070BDAFF30080A3
:1087E0008D49FD1A0700000000CA9A3B8C49FD1A0A
:1087F0008886002089888888C9F703000000000067
:1088000038B5194C9DF810E094F848C01CF00105EB
:1088100023D163F3420C400194F83230A1874FEA30
:10882000CE0E0EF0180E00F0200040EA0E0023F0ED
:10883000380303430D4884F832309121A2FB000332
:1088400084F848C001FB023105A3D3E90023FFF7F8
:10885000EDF8C4E91000284638BD0C25284638BD7F
:108860008D49FD1A07000000F8400020002AE78427
:1088700010B504469DF8080022844FEA411CC00050
:10888000A17D00F018000CF0200C4CEA000C0C4804
:1088900021F038014CEA010CA3FB0002912184F87D
:1088A00016C001FB032104A3D3E90023FFF7BEF8A0
:1088B000606210BDAFF300808D49FD1A0700000013
:1088C000002AE784000000002DE9F047044600F18B
:1088D000350190F8480094F832305B4DDFF8808124
:1088E000C0F3400060F386138CB084F8323016F089
:1088F000F7FE94F83220A38F5448E46102F0790225
:10890000002784F832209121A3FB0002C4E90577F7
:10891000277001FB03214AA3D3E90023FFF786F860
:10892000651B626C4A4B6760AD08A3FB053502F11D
:108930000903984298BF3A46C5F3470522644FF0B1
:1089400031028CBF19460146A26005EB4502E76083
:10895000216148F82210064616F070FE236A00F1E5
:1089600009074FEA450A002B4AD00DF12C09AA4409
:1089700008EB8A030993CDF820900694A38F33481F
:108980004FF00008A3FB0002CDF80C80912101FB01
:108990000321236904932F4B07932F4B05934FF02B
:1089A000020A27A3D3E90023CDF82CA0FFF73EF855
:1089B000104619464FF47A720023FFF737F8043552
:1089C000EDB2CDE9016003213B462A46CDF8008097
:1089D000404616F0D1FC494617F012FC60B994F8F5
:1089E000483043F0010384F848301AF073F908B3B3
:1089F00000200CB0BDE8F0870C200CB0BDE8F0877B
:108A00000DF12C09CDE90A3321694B460AAA03204E
:108A100001F096F90028AAD10B99104808A3D3E9D0
:108A20000023A1FB0001FFF701F80A9B20F07F471C
:108A30001F449CE7504621F0FDFCD9E7AFF30080CE
:108A40008D49FD1A07000000F8400020002AE78445
:108A5000BD86F21AC9F703005D2F040000CA9A3BD5
:108A600018870020000000002DE9F04F05468BB06C
:108A70008B46012002219A46144625F06BFA00220B
:108A800002218146012015F057F93B494FF4D47279
:108A9000284615F0E1F8461DF6B2384B00953246EF
:108AA0000121002016F0E0FC10F0FD0F0CD0344A3C
:108AB0003449354840F62F0330F0BBFF404080F387
:108AC00011884FF0030002DF304BA4FB034820461F
:108AD00027A3D3E900234146FEF7A8FF2C4B20F043
:108AE0007F47A7FB03310722E01A02FB071168EB5F
:108AF00001014FF47A720023FEF798FFCDE901706F
:108B0000CDF800B008950695296995F939402148B6
:108B10000491214931EA240128BF014605911F4CE7
:108B200007944FF6FE71039153463246012100200F
:108B300016F0EEFB10F0FD0F0CD0114A114912484F
:108B400040F6440330F075FF404080F311884FF049
:108B5000030002DFB9F1000F02D10BB0BDE8F08FC6
:108B60000122022110460BB0BDE8F04F15F0E4B829
:108B70008D49FD1A07000000484100202D350400F2
:108B8000886E06004C6F06002469060000CA9A3BF6
:108B90008D49FD1AA59504004D970400D5340400B5
:108BA0002DE9F043C469228D4FF6FF739A428DB0D0
:108BB00000F08880054620461DF0AAFD95F8283073
:108BC000012B00F00F81022B00F00281002B00F03E
:108BD000E18094F85071002F40F0FD80E68DB4F8EC
:108BE0003080002E71D1AA8C08F101060023CDE956
:108BF0000A33B6B2002A70D094F93930002BC0F293
:108C000048810023A4F88A3195F82630D90740F12D
:108C1000EF800023A4F88E310DF127023146204663
:108C20001DF0BAFA743000F04681B4F888312BB1E7
:108C3000B34240F20D819B1BA4F88831B4F8843113
:108C40002BB1B34240F2FB809B1BA4F88431258EEC
:108C500017B9A84500F0EA800135ADB294F8D130DB
:108C600013F001065AD1DDE90A130A46002B40F041
:108C7000ED80002900F0DC801E461846228DE46954
:108C80000694CDE903570532A74D0290CDE90016B1
:108C9000D2B201210020059516F0CEFB10F0FD0F99
:108CA00010D017F0D7FA84420CD0A04AA049A148AE
:108CB00040F2155330F0BDFE404080F311884FF074
:108CC000030002DF0DB0BDE8F083AA8C4644002308
:108CD000CDE90A33B6B2002A8ED195F82630DA07EC
:108CE00097D4B4F88A31002B00F08280B34240F26E
:108CF000FA809B1BA4F88A31B4F88E31002B8BD0FC
:108D00009E4280F0DE809B1B9BB20022062BA4F8C3
:108D10008E31228600F2AC8001277DE794F939205C
:108D20006FF30003002A84F8D13077DB94F87600E3
:108D3000C0F3C00100F0070022F0CEFCB4F86E20B2
:108D4000B4F86C30134403F2D51303447A4A7B48D9
:108D50000721E3FB0021104671A3D3E90023FEF7AE
:108D600065FEDDE90A1320F07F422069226190420E
:108D700035BF161A801A002000260A46002B7FF401
:108D80007DAF56EA010C7FF479AF002850D0194628
:108D90001E4673E794F88E3003F01803182B7FF407
:108DA00018AFA18DB4F886218B1D9A42C4BF931FC2
:108DB0005B1AB4F88211CCBF9BB21346994200F003
:108DC0008C80A4F88231A4F88431A4F8882100E7CB
:108DD0003D2784F85071394620460DB0BDE8F04378
:108DE0001AF0B2BF0023A4F88831A4F88431F0E669
:108DF000B4F88E31002B83D1628DB4F88C3140F2FF
:108E0000E24101FB02F242F2107101FB0323013B3C
:108E1000B3FBF2F39BB2A4F88E316FE794F87700BE
:108E2000012100F0070022F059FC87E73D4615E7D5
:108E3000002D4BD000261146304633461EE7002356
:108E4000A4F8843120461DF047FA00E7304615E7C4
:108E500017F068F9014600283BD00023A4F88831B8
:108E6000238DC3801B230371006817F025F9E5E605
:108E700094F939309342BFF6CFAEB8F1000F7FF4CA
:108E80004BAFD4F878315A08DB0743D4C4F87821C3
:108E9000C2E628460AAA0BA904F1D409FFF7F0F9A3
:108EA00048461CF007FF18B348461CF003FF18B3F0
:108EB00000232386A5E69DF8271020461AF044FFDC
:108EC00000E7082120461AF03FFFFBE6002FB1D152
:108ED000F8E60123A4F88831B0E6B4F88811002937
:108EE0007FF477AE6FE73E2120461AF02DFFE9E6CA
:108EF000FF201AF0E1FED7E70246D4E91E0114F084
:108F0000E3FE0028D4D194F83C30580744BFA38D29
:108F1000238676E642F00042C4F87821FCE600BFE2
:108F20008D49FD1A0700000095340400886E060084
:108F3000986F0600246906008C49FD1A00CA9A3B06
:108F40002DE9F04F87B0CDE90432BDF84420037815
:108F50000292BDF84820BDF84080BDF84C50468EC6
:108F6000B0F82E90B0F814B1019104460392002B92
:108F700000F0CB80013EB6B2A368D4F80C71721B2E
:108F800092B2002B009209DAE168626823F0004394
:108F900091422CBF7F18BF18A360FF1A009A638DFF
:108FA00013FB02F39BB2B3FBF8F218FB02F080B2A2
:108FB00083421FFA82FA80F09780C01A40F2E242A0
:108FC0005D4902FB00F0A0FB010159A3D3E9002396
:108FD000FEF72CFD20F07F400744D94494F8393047
:108FE0004D44AD1B554440F2E246DB09E58506FBE6
:108FF00008F500F08E80226C0099A36CDFF838B180
:1090000002FB1133A36422F053FD814694F87401EE
:10901000C0F3420022F04EFD059B814406FB03F3A2
:1090200005FB09F9236509F57429444B09F23F2929
:10903000A3FB09394FEA994303FB0AF02364A5EB2C
:109040000309A36C6A080344963A934228BF134667
:10905000C4E911230023C4F87C31A0FB0B0134A325
:10906000D3E90023FEF7E2FC049B3F1A3448A0FB3F
:109070000330800A06FB00F02DA3D3E90023A0FBF8
:109080000B01FEF7D3FC20F07F46029BA385039BD8
:10909000A4F88C3129462046A4F82A801DF0B8F89F
:1090A000284BA18D2B44881DB3FBF5F39AB2904257
:1090B000A4F8862102D2521A063A92B2019BA4F871
:1090C000822113B10023A4F88E313B464A46314633
:1090D0002046FFF7C9FC94F8803143F0010384F87F
:1090E000803107B0BDE8F08F08FB1231124840F222
:1090F000E24389B203FB01F1A1FB00010CA3D3E918
:109100000023FEF793FC3F1A67E74E445E44B6B275
:1091100032E7049B0848A3FB000105A3D3E9002321
:10912000FEF784FC20F07F46A9460136ADE700BF7C
:109130008D49FD1A0700000000CA9A3B83DE1B43DD
:109140005917B7D17FC3C9012DE9F04F04460B6809
:10915000077F1668D3F800A0638CD0F81E0095B086
:1091600015464A7CADF84C30FF2AC7F38013894678
:109170000D9212908DF83F3072D198461A4612AB7C
:1091800093E803000DF1400B1090ADF84410F8097E
:109190000AF1710127680A915B460C900B971AF04F
:1091A000BBFC0A99002843D196F89A310C9A0A9090
:1091B00068F3410362F3000386F89A311098BBF814
:1091C0000430C6F8A101A6F8A531DAF87130C6F866
:1091D0009B318B88A6F89F31E38D94F83010A972EB
:1091E0002B81D4F82A306B60D4F83A30AB6105F1AA
:1091F000180094F83E300371052114F0EBFE6B7FEC
:1092000000F03F0060F305036B7794F83F30C3F341
:109210000401A977A18EE981012803F01F0389B217
:1092200006D91B3303F01F030B2B01D80A9A59BB35
:109230000022CAF8142095F820300B9862F300033E
:1092400085F82030E56801262146267116F02AFFB0
:1092500028682E71294616F02FFF15B0BDE8F08F53
:109260000DF1400B10460DF13F015A4620F058FE1B
:109270009DF83F80277F08F102085FFA88F88DF893
:109280003F8008F0010282E7D9F800305A60E38E8F
:109290002B82EB8940F2E24808FB03F71146638E0C
:1092A0000A9330461CF0C8FF94F83F3096F87421BA
:1092B0005B0963F3430286F8742122F0F9FB0C90FA
:1092C00096F87401C0F3420022F0F4FB0C9B1844A2
:1092D00007FB00F0BA4B00F5742000F23F20A3FB1F
:1092E00000307B08800C963B6862AB6294F83130AA
:1092F00008FB03F3AB63238FA6F88C313946304665
:109300001CF086FFAF4BB04AC6F890213B44B3FB3C
:10931000F7F39AB2A6F88621298A881D824204DDD5
:10932000C1F57F41FA310A4492B2A6F882216B68F6
:10933000C6F87831234613F81C2FC2F34018DA0719
:1093400000F104814FF48073A3839AF8260021F082
:1093500041FB04F12B03002800F0EE80626AC4F8A0
:109360002B20228D9A800D9BFF2B00F0E980BDF809
:109370004C301298A4F82930C4F82500BBF804300A
:10938000A4F8233010989DF83F30C4F81F00A3774D
:10939000EB8963862B8AA386B6F88C31E38696F830
:1093A0007431C3F3420384F8383030461AF0F6F8CB
:1093B000A881E08021460B98D9F8044016F072FE8F
:1093C000AB89E3801C23D4F800B02371B8F1000FFF
:1093D00040F0D18084F81C802146584616F06CFE7F
:1093E00095F85B00B5F85080B5F85240012100F0C7
:1093F000070022F073F9444404F2D514DFF8D48155
:109400000444834671480721E4FB0801312300240A
:10941000B360746068A3D3E90023F460FEF706FB31
:1094200020F07F4030616D6A0A9A7D1BD9F80C707C
:1094300040F2E24303FB027702212246012014F0AE
:109440007BFC504619F02CFC07F2B2470246A7EB12
:109450000B07A7FB0801174657A3D3E90023FEF724
:10946000E5FACDF804A0D9F808305949009120F068
:109470007F48BA1C3A3BD2B220464344012116F041
:1094800035F8012800F082809AF82430DB076AD48E
:1094900030461AF083F84F4BA5FB035A044646A307
:1094A000D3E9002328465146FEF7C0FAD9F8083020
:1094B000494A0792A3F13A09484B069620F07F47A4
:1094C000A7FB0331E81A464B059340F2D1130893EA
:1094D00033694FF0000BCDE903B34FF0070303FBF3
:1094E00007116AEB01014FF47A720023FEF79EFA2E
:1094F0000534E4B2CDE90170CDF800804B46224638
:109500000121584615F004FF10F0FD0F0CD0354A2C
:10951000354936484FF4E97330F08BFA404080F318
:1095200011884FF0030002DF01220221104614F0DF
:1095300003FC15B0BDE8F08FC4F82B00988012E74B
:109540000022C4F82520A4F8292017E7254A284935
:109550002648F82330F06DFA404080F311884FF030
:10956000030002DFEEE600230122009318461146B5
:1095700015F07AFF8CE76B7F43F040036B77281D73
:1095800020F0C6FA4FF00108E88323E716F062FEE8
:1095900082453FF479AF134A1649144840F27923C3
:1095A00030F047FA404080F311884FF0030002DFAB
:1095B0006AE700BFAFF300808D49FD1A0700000085
:1095C00083DE1B437FC3C901404B4C008C49FD1A0D
:1095D0006995040000CA9A3B399504008D49FD1A2B
:1095E000A5950400387406004C6F06002469060037
:1095F000E86B0600947406002DE9F04F8DB01F460D
:10960000BDF860300793CDE90501BDF868309DF8DD
:109610005C90BDF864B004930020164619F0B4FDC8
:10962000002800F0658109F001080446404616F064
:1096300047F80390B8F1000F6DD1169B03993A4695
:1096400040461AF069FA002840F06381236A04F169
:109650001C020892002B65D0D4F820A0DAF8005044
:1096600007F0010B9AF85A00C0F3C00100F00700A0
:1096700022F032F8BAF85210BAF8502000F2D5139E
:109680000A441344CC48CD4A0721E3FB002110468D
:10969000C7A3D3E90023FEF7C9F920F07F40286172
:1096A000304620F007FF94F833306FF3410384F81D
:1096B0003330FF2384F83430002E00F01D81A9F1EF
:1096C0000203012B40F2298194F84810089869F3AD
:1096D000420184F8481094F833106BF30001DDE97F
:1096E000052384F8331016990968616216998988F0
:1096F00021850499218600960021FFF7B9F860645E
:1097000022F084F9002840F013812046FFF7DCF8AE
:109710000DB0BDE8F08F062114F0B2FA00288CD10C
:109720001220F5E716F0A6FC0990002800F07381DE
:1097300019F028FF0546002800F06A81203014F057
:109740005DFC05F11C0A002840F01D81032105F194
:10975000240021F075FE079BD5F888006B854FF635
:10976000FF73A5F82CB02B85002800F0198105F1B6
:109770007C0205F1780114F08FFAB5F8763023F405
:10978000EF6323F0070343F4887343F00103A5F864
:10979000763095F88E304FF0000B23F0070385F8F4
:1097A0008E300121C5F888B0A5F88CB028461AF093
:1097B0000DFEC5F82EB0A5F832B005F1340020F04A
:1097C00051F995F8393060F30503012185F83930F6
:1097D0000DF12F0021F034FE049B9DF82F20A5F8F9
:1097E0008C31774B85F83BB0A3FB0213DB0803EB0E
:1097F0004303A2EB830295F83930A98DA5F88EB109
:1098000003F03F0385F8393095F83C30A5F884B172
:10981000053223F0030385F83A20079A85F83C3097
:1098200040F2E24B674B0BFB02FB4FF4C0225B4460
:10983000C5F88821881DB3FBFBF39AB28242A5F8D4
:10984000862102DD063A521A92B2A5F882212846F4
:109850001CF066FC594628461CF0DAFC099BC5F84A
:109860005431002385F850311AF04AF995F89421C3
:1098700060F3020285F894211AF048F995F89421D2
:1098800060F3C50285F8942195F88021002363F3E5
:10989000410285F8802105F1D4001CF0C9F995F842
:1098A0009A21169907F0010B6BF3410285F89A2172
:1098B0003122AA600023169A6B60EB601268C5F82B
:1098C000A12195F89A218988A5F8A51169F30002CC
:1098D000039985F89A210A68C5F89B218A88A5F81A
:1098E0009F21C4F820A0C5E905332B70ED61B9E6CE
:1098F0000C200DB0BDE8F08F21F01CFA00283FF4D9
:10990000DEAE16993846324620F04EFF84F8340019
:10991000D5E60B200DB0BDE8F08F002020F0EEFD65
:1099200094F8333043F00203C14684F83330CBE679
:10993000256AEB6E63B1244A2449254840F21D4351
:1099400030F077F8404080F311884FF0030002DFD9
:1099500005F1600105F15C0014F0A2F9064600284B
:109960003AD02F68EE66D7F85451002D42D02846E1
:1099700016F086FB384619F00BFE00230320236205
:109980000DB0BDE8F08F104A12491148C12330F0E4
:1099900050F8404080F311884FF0030002DFD5E615
:1099A00005F18000C5F88800E1E600BFAFF3008054
:1099B0008D49FD1A0700000000CA9A3B8C49FD1A28
:1099C000ABAAAAAA7FC3C901C47406007C6D0600B5
:1099D0002469060080690600104A1149114840F2C6
:1099E0001F4330F026F8404080F311884FF0030009
:1099F00002DFB6E7094A0A490A4840F2264330F036
:109A000018F8404080F311884FF0030002DFAEE702
:109A1000099816F035FB07207AE600BFC4740600EB
:109A2000D86E0600246906002DE9F04F04468DB07B
:109A300090F81C80238D406AADF82C30E307C8F302
:109A4000C0170E461546C8F340180A9000F10D8164
:109A50000023A383B37C707C13F001031CBFD4F8F4
:109A60001E30C4F82B3004F12B0214BF638CC4F8F1
:109A70002B30FF28938004F1250904F11F0240F0E8
:109A8000E5800023BDF82C100A98C4F82530A9F809
:109A90000430A777C4F81F0091803368D3F8009092
:109AA000EB8963862B8AA386B9F83030E38621F0F0
:109AB000FDFF84F838002F68384619F06FFD00214B
:109AC000A881E08038461CF0B7FBD6F804A02068D7
:109AD000214616F0E7FAAB89AAF806301C23DAF81B
:109AE00000408AF80430B8F1000F40F0CC808AF8CA
:109AF0001C805146204616F0DFFABB687A6895F85C
:109B00005A00B5F80E80F568674C934238BF13468B
:109B1000C0F3C00103F1090A00F0070040F2E2437C
:109B200003FB08F821F0D8FD002202212D1A0120A4
:109B300014F002F9484619F0FDFAA5FB044558A3B4
:109B4000D3E90023834629462046FDF76FFFCDF871
:109B50000490B3685549009120F07F490BF104024D
:109B6000A3EB0A03D2B24B440121002015F0BEFC46
:109B700010F0FD0F0CD04E4A4E494F4840F23D3395
:109B80002FF057FF404080F311884FF0030002DFB1
:109B90004FF0000B5B4603220121CDF800B0584680
:109BA00015F062FC384619F0F9FCB36806463E48E9
:109BB000A3EB0A0AA8FB000139A3D3E90023FDF7B0
:109BC00035FF19463D4B08933D4B069340F26D33EC
:109BD000079709933B698046CDE904B310460023FB
:109BE0004FF47A72FDF722FF364B0722A9FB0331AF
:109BF000CDE9028002FB0911E01A65EB01014FF487
:109C00007A720023FDF712FF0536F6B2CDE9009017
:109C1000534632460121584615F096FB10F0FD0FD1
:109C20000CD0234A2349244840F26E332FF001FF21
:109C3000404080F311884FF0030002DF012202212F
:109C400010460DB0BDE8F04F14F076B804F11E01D7
:109C500020F066F9A37FBDF82C200A98C4F82500EF
:109C60000233A377A9F8042017E7114A16491248CE
:109C700040F2BD232FF0DDFE404080F311884FF00D
:109C8000030002DFE4E66B7F43F040036B77281D9F
:109C90001FF03EFF4FF00108E88328E7AFF3008094
:109CA0008D49FD1A0700000000CA9A3B199704006D
:109CB000C47406004C6F0600246906001D9704005A
:109CC0004D9704008D49FD1AE86B06000000000066
:109CD0000538C3B2042B0CD870B580B20D4619F00C
:109CE00065FC044618B190F93930002B03DA0020E6
:109CF00070BD0020704790F876000F4EC0F3C00191
:109D000000F0070021F0E8FC0C4A00F2B5500721F2
:109D1000E0FB0621104606A3D3E90023FDF786FEEB
:109D200020F07F402860204670BD00BFAFF3008068
:109D30008D49FD1A0700000000CA9A3B8C49FD1AA4
:109D40002DE9F04F93B0FF240B930B1D0A930023D2
:109D5000CDE90E33054616468DF837409B464FF049
:109D6000040A1F469946984610AB0693564B059336
:109D7000564B03930FAB01930EAB002000930223CD
:109D800010930490029033460DF13702294615F0E6
:109D9000F1FB022815D0109BCBB9FF2C26D03368DD
:109DA000BB4223D0BAF1000F40D00AF1FF3AFF24A2
:109DB0005FFA8AFA8DF83740D6E72946002015F079
:109DC00025FC109B022BF8D0109B002BE5D0404ABD
:109DD000404941484FF4F7732FF02BFE404080F389
:109DE00011884FF0030002DFFF2CD8D19DF8370017
:109DF000FF2829D011A9FFF76BFF0028B4D0FF2C52
:109E00000E9F119B0AD041463846099315F018FC65
:109E10000A9B03EB09029042099B17D8B8469DF8AC
:109E200037403768DDF83CB099469DE72B49284A12
:109E300029484FF4FB732FF0FCFD404080F311885C
:109E40004FF0030002DFB0E7FF2C34D02448072195
:109E5000A9FB000301FB093119A3D3E90023FDF796
:109E6000E5FD044600B140341E4AABF57423A3F56A
:109E70001073934216D81A480721A8FB000301FB70
:109E800008310FA3D3E90023FDF7D0FD164BA3FB48
:109E90000B2304EB93440B9B044400201C6013B081
:109EA000BDE8F08F0BF1E87B0BF5D43B08F1FF38F0
:109EB0000BF5A57BDFE76FF0090013B0BDE8F08F6D
:109EC00000CA9A3B00000000299A04002D9A040061
:109ED0001075060054750600246906005C750600BE
:109EE0008D49FD1ABFBDF07F83DE1B4300000000DB
:109EF0002DE9F043C668476873683D491A68D0F891
:109F00000090A7F57423A3F510738B4283B08046AD
:109F100007D907F1E87707F5D43709F1FF3907F5D5
:109F2000A57773681169DD89CDF8049006F11003F7
:109F300001AA0220FFF704FF00284ED10199A1EBEE
:109F400009031B0237D40846494615F079FB03463E
:109F500028480721A3FB000201FB032122A3D3E928
:109F60000023FDF763FD34690444002C346109DBF0
:109F700040F2E24305FB03F3A3422FD2E41AA342CB
:109F8000FCD33461D8F800301A48A3EB0903A3FBD3
:109F90000002072101FB032113A3D3E90023FDF7EE
:109FA00045FD154BA3FB0737A0EB974020443061DC
:109FB00003B0BDE8F083484615F042FB03460D4868
:109FC0000721A3FB000201FB032107A3D3E9002320
:109FD000FDF72CFD3469241AC7E73469002CD1D170
:109FE00003B0BDE8F08300BF00CA9A3B0000000048
:109FF000BFBDF07F8D49FD1A83DE1B4300000000CA
:10A0000010B5334C3349002304F1FF3C14F83320DE
:10A01000072A02EB820E05D811F83E206FF3451295
:10A0200001F83E201CF833206FF300020CF83320B7
:10A030000133082BEAD1284A284C002313700A78F0
:10A0400063F300020A7091F8282063F3000281F89C
:10A05000282091F8502063F3000281F8502091F8F5
:10A06000782063F3000281F8782091F8A02063F350
:10A07000000281F8A02091F8C82063F3000281F863
:10A08000C82091F8F02063F3000281F8F02091F8E5
:10A09000182163F3000281F81821114A9FED0A7B11
:10A0A0001370104B83ED007B0F4B236028B1BDE88C
:10A0B00010400E490E4838F09EBABDE810400C48DA
:10A0C00038F0A7BAAFF30080FFFFFFFFFFFFFFFFED
:10A0D000A992002068910020D9A600207890002045
:10A0E000D8A60020C0490020A0BB0D00E9A60400AE
:10A0F00090490020000000002DE9F04F8FB00DF1D5
:10A1000037010446DFF8E0A0DFF8E0800DF136000B
:10A1100016F050F89DF836309DF837B00B9315F0D7
:10A120008DFADAF80060A6FB085629A3D3E90023CC
:10A130000027814631462846FDF778FCCDE90777B0
:10A14000069420F07F44DAF80400234B0593A0FB2B
:10A1500008011FA3D3E90023FDF768FC1F4B20F083
:10A160007F40A4FB0331072202FB0411CDE90370F9
:10A17000E81A66EB01014FF47A720023FDF756FCF2
:10A180000097CDE901404B460B985A46032115F044
:10A19000BFF810F0FD0404D06FF08B000FB0BDE8E5
:10A1A000F08F0F480F4A00232AF0CCFF20B9DAF8CD
:10A1B0000C000FB0BDE8F08F9DF837209DF83600F9
:10A1C00000942346032115F04FF96FF07300E5E783
:10A1D0008D49FD1A0700000039AE04008D49FD1AB3
:10A1E0001C930020447B0B003493002000CA9A3B50
:10A1F00038B50F4D044615F021FAA96815F020FA7C
:10A20000696803460B48B3FBF4F4A1FB00011C444E
:10A2100005A3D3E90023FDF709FC20F07F40844229
:10A2200094BF0020012038BD8D49FD1A07000000B1
:10A230003493002000CA9A3BF0B5C468636883B0C9
:10A240000546002B63D123F0CBF9002023F0EEF973
:10A250000021084623F0DCF900222521082023F004
:10A260001BFA454B019301A823F0FEF9434940F244
:10A270005B6023F0A9FA237AC3F3420262F3061368
:10A280002046237221F034FE20F054FD58BB637A3F
:10A290009B071FD127682E68384621F0BBF906447A
:10A2A0006A6806F10901012023F0E8FB23F0D4FCE1
:10A2B000204618F001FD811C3246C9B2384621F013
:10A2C000B7F9054670BB204621F03EF988B9002059
:10A2D00003B0F0BD012020F0A1F84178821C007885
:10A2E00023F06CFBD6E7607A10F0030018BF012062
:10A2F000F1E7234A2349244840F22C432FF099FBED
:10A30000404080F311884FF0030002DFDFE793F84D
:10A3100020309A0797D01D48214623F01FF923F0DB
:10A320000DFAD4E7164A1A49174840F214432FF0A1
:10A3300080FB184B0721A5FB030301FB05310CA390
:10A34000D3E90023FDF772FB1349024613482FF0AF
:10A3500070FB404080F311884FF0030002DF10488B
:10A36000214623F0FBF823F0E9F96FF08B00AFE70B
:10A3700000CA9A3B00000000D6BE898E5555550094
:10A3800008790600906A060024690600B9B704003F
:10A39000A46906008D49FD1AB87906008C7906007B
:10A3A000C1BA0400000000002DE9F041C46894F92E
:10A3B0001630002B8CB0C0F2FF80636805460E4655
:10A3C000002B40F0EE80A37D6FF30003A37523F014
:10A3D00007F9002023F02AF90021084623F018F994
:10A3E00000222521082023F057F9012015F0E4FF71
:10A3F0000746002800F0C78007F11C0023F076F91B
:10A40000874B0B930BA823F02FF9864940F25B6032
:10A4100023F0DAF9A07DC0F34100253021F01AF9CC
:10A420008148214623F09AF8A37D9B0603D46368F4
:10A43000002B00F0A580962023F014FB00231A4681
:10A440001946184623F026FA20F074FC002838D16B
:10A45000A37D13F0180F59D1D4F800802F6840461F
:10A4600021F0D8F807446A6807F10901002023F0B9
:10A4700005FB23F0F1FB23F07DFA204618F068FE7F
:10A48000011DC9B240463A4621F0D2F88046002864
:10A4900040F0998016B9636A002B4ED1636843B1CE
:10A4A000624B0122022100209D6013F07BFC0028FA
:10A4B00035D1204621F048F8D0B900200CB0BDE8D5
:10A4C000F081A07DC0F3C0001FF0A8FF07460DF18A
:10A4D0002B0020F0A7FA79788046BA1C387823F050
:10A4E0006DFA9DF82B000022414623F085FCB3E76E
:10A4F0004F4A5049504840F20B232FF09AFA4040FF
:10A5000080F311884FF0030002DFD6E701201FF02F
:10A5100085FF4178821C007823F050FA9CE7444A7A
:10A520004649454840F206232FF083FA404080F325
:10A5300011884FF0030002DFBBE7414A0792414A0E
:10A54000059240F2F31200930892CDE90366CDE93B
:10A55000016606943B463146032214F0D9FE10F002
:10A56000FD0F9BD0324A384933484FF4FA732FF02D
:10A5700060FA404080F311884FF0030002DF8DE75E
:10A5800023F0E8F960E72A4A30492B484FF4C573B5
:10A590002FF04FFA404080F311884FF0030002DFA4
:10A5A0002AE7636893F82030D90705D4636893F8E5
:10A5B00020309A077FF507AF2548214622F0CEFFCD
:10A5C00023F0BCF879E71A4A22491B4840F2E51308
:10A5D0002FF02FFA204B0721A8FB030301FB0831C2
:10A5E0000DA3D3E90023FDF721FA1C4902461C48BC
:10A5F0002FF01FFA404080F311884FF0030002DF74
:10A600001848214622F0AAFF23F098F86FF08B003B
:10A6100054E700BFAFF3008000CA9A3B000000007F
:10A62000D6BE898E5555550009A702004411002059
:10A63000C4790600906A060024690600986A06003C
:10A6400039C60400D9C60400C86C06005479060057
:10A65000B9B70400A46906008D49FD1A107A0600F6
:10A660008C79060015C5040038B5044621F002FFB8
:10A67000A37DA27DC3F34103013303F00303032B46
:10A6800008BF002363F3420214BF03F12500252015
:10A69000A27520F0DFFF63680BB123694BB914F09A
:10A6A000CDFFC11C002023F05DFABDE8384023F047
:10A6B000D3BA23F085FA054614F0C0FFC11C002070
:10A6C00023F050FA23F0C8FA23F07AFA294614F05E
:10A6D000B7FF0B4A03460721A0FB020201FB03213F
:10A6E00005A3D3E90023FDF7A1F923691B1A236110
:10A6F00038BD00BFAFF3008000CA9A3B00000000E5
:10A700008D49FD1A000000002DE9F0478AB004468B
:10A7100023F046F8C0B250B920F0F4FFC4482146F7
:10A7200022F01CFF0AB0BDE8F04723F007B823F081
:10A7300057F8054623F076F9074623F07DF9814660
:10A7400023F0B4FB064623F093FB824623F02CF95A
:10A75000EDB2804623F00CF920F0D4FF002DDDD0BF
:10A76000012015F029FE0546002800F04D8117F064
:10A77000FF07F6B240F0E380002E40F0DA804FF0A1
:10A78000FF093A464B463146204622F099F8002808
:10A79000C4D02A7F616800238DF823305FFA88F7E0
:10A7A00002F00F03002900F0EC80616891F820109E
:10A7B000880700F1E680072BB0D0A17D090740F1A2
:10A7C0004381002B40F0C4806B7F063B1F2BA5D834
:10A7D000042015F0F1FD0028A0D023F045FA636AAB
:10A7E000074643B9238C40F2712202FB03F3B0FB0E
:10A7F000F3F203FB120723681A698E4B0721A2FBB1
:10A80000030301FB023188A3D3E90023FDF70EF90E
:10A810006FF44A7C00EB0C03BB42FFF47FAF23F0E4
:10A8200099F84846636820F0E3F8E37D990780468D
:10A8300040F1E581002800F0E2818246012722F004
:10A84000DDFFCDE9027A09AB049305F11E03019304
:10A850002B7FC3F380130146074600930022012398
:10A86000204622F047F8384622F046FF22F08EFFBD
:10A87000002840F0CA817048214622F06FFE6268CD
:10A8800092F8203043F0010382F82030A37D43F09A
:10A890008003A37515F0B2FD172202714FF6FF7207
:10A8A000C28095F81CC082463B46CCF3401C00F1A8
:10A8B0001C0207F1200E1D6858689968DF68D76090
:10A8C0001033734515605060916002F11002F2D1AF
:10A8D0001B6813609AF81C30CAF808406CF34513E3
:10A8E0008AF81C3023F06CF9002ECAF81000099B7E
:10A8F000CAF8143008BF4FF0FF098AF81990E37DB9
:10A9000013F0020303D0B8F1000318BF01239AF833
:10A910001A2063F300028AF81A2015F06FFDCAF8B6
:10A920000C00DAF8000051460AB0BDE8F04715F017
:10A9300093BD5FFA8AF020F0E9F8814621E7A07D17
:10A940005FFA89F1C0F3C00020F076F8814618E77D
:10A95000012B40F089806A7F0C2A7FF4DFAE2A7FCA
:10A96000CDF80090194600230193D20905F1240384
:10A97000204621F0F9FE00287FF42AAF2B7F03F058
:10A980000F03002B70D16B7F052B7FF6C7AE252BF5
:10A990003FF6C4AEA27D02F02102202A09D16268EE
:10A9A000002A00F0C180052B7FF6B8AE252B3FF6BC
:10A9B000B5AE63682BB12B7F03F00F03072B7FF439
:10A9C000ADAE03209DF8238015F0F6FC0546002867
:10A9D0003FF4A4AE15F012FD4FF6FF73EB80052394
:10A9E0002B71002F3CD17F20AB7E2876002E08BF34
:10A9F0004FF0FF0968F34103286885F81990AB769A
:10AA0000294615F029FD89E60C4A0D490D4840F20A
:10AA1000C7232FF00EF8404080F311884FF0030059
:10AA200002DFA4E6AFF3008000CA9A3B00000000FA
:10AA30002DC504008D49FD1A1DC70400C479060008
:10AA40005479060024690600B9F1FF0F8DF82490AF
:10AA5000C2F380184BD0227E91453FF4B2AE90E70E
:10AA600022F092FFC0B2BFE7062B8CD04521D9401F
:10AA700011F0010139D1012B10D16B7F0C2B7FF428
:10AA80004DAE2A7FCDF800900DF123030193D2093A
:10AA900005F12403204621F067FE08BB2B7F03F05D
:10AAA0000F03042B7FF43AAE6B7F063B1F2B3FF660
:10AAB00035AEA37DDB077FF531AE22F09FFE2B7F05
:10AAC0000278C3F38013B3EBD21F7FF427AE0830B4
:10AAD000062205F11E0138F096FA00287FF41EAE1A
:10AAE0006B7F002B7FF465AF18E66B7F5BE705F1AA
:10AAF0001E0A09AA5146404620F0BEF800283FF43D
:10AB00003DAFE37D03F0010343457FF437AF51468A
:10AB1000062204F1080038F076FA00287FF42EAF00
:10AB20002B7F03F00F034CE69620079222F09AFF4A
:10AB3000079A104622F066FE032015F03DFC804681
:10AB400000283FF4EBAD15F059FC4FF6FF73A8F861
:10AB50000630052388F80430002F64D17F23002EAF
:10AB600088F8183014BF4B46FF2388F8193098F83E
:10AB70001A30D8F800006FF3410388F81A304146C4
:10AB800015F06AFC22F03AFE06460322337862F39F
:10AB9000030333702B7F3278C3F3801363F3C71240
:10ABA0000C233270484673701FF022FFE27D92073B
:10ABB0003DD500283BD03178324641F0400102F8C3
:10ABC000021B0168C6F8021083889380D5F81E30F6
:10ABD000B3606B8CB381304622F08EFD22F0D6FD3F
:10ABE000002835D123F038F8A37D204843F0010335
:10ABF0002146A3750AB0BDE8F04722F0AFBCA77D9F
:10AC000004F1190AC7F3801719E6194A19491A48B5
:10AC100040F2A4432EF00DFF404080F311884FF026
:10AC2000030002DF27E622F0AFFEC3B297E7A37D61
:10AC30003278C3F3801363F38612334603F8022B92
:10AC4000D4F81920C6F80220B4F81D209A80BDE778
:10AC5000074A084908484FF4A5632EF0EAFE404031
:10AC600080F311884FF0030002DFBBE741C5040009
:10AC7000C47906005C790600246906000000000023
:10AC80002DE9F041C468A2894FF6FF739A4282B061
:10AC900000F0C780054621F031FF2B89628AE08AE7
:10ACA0001A4492B21044637FA28280B2411CE182B6
:10ACB0005E064FF00001618204F1180100F18C8002
:10ACC00003F03F000B46A17F009004F11F001EF02F
:10ACD000D7FE0646D4E90B231344D4E90D02002124
:10ACE0000244E1626163A16AA26394F872208B421C
:10ACF00028BF0B4612F00402236377D022F070FCC9
:10AD0000002022F093FC201D22F0AEFC2389A17AC2
:10AD100040F25B6043EA014122F056FD304620F0EC
:10AD200099FC2146584822F019FC962022F09AFE00
:10AD300094F85A2094F85B00C2F3C003002102F09B
:10AD4000070200F0070022F0A5FD204621F038FFA1
:10AD500027682E68384620F05DFC06446A6806F1D4
:10AD60000901002022F08AFE804622F049FF0020DF
:10AD700022F060FF236B94F85B0003F13002A36BB9
:10AD800000F00700012103EB420522F0C3FC45441B
:10AD9000054494F85B0000F00700022824D0042842
:10ADA0000CBF4FF4BC73282301211D4422F0B4FCD6
:10ADB000284422F017FFA18905313246C9B238462E
:10ADC00020F036FC054698BB204620F0BDFBD0B9EC
:10ADD000002002B0BDE8F0810A4603F03F03E18B9A
:10ADE0001EF09AFE064675E71823DDE7D4E9170141
:10ADF00012F06AFF002881D194F8723043F0040306
:10AE000084F872307AE7214A2149224840F25513EA
:10AE10002EF00FFE404080F311884FF0030002DF58
:10AE2000D6E71D48214622F099FB22F087FCCFE7A8
:10AE3000164A1A49174840F24B132EF0FAFD184BE8
:10AE40000721A5FB030301FB05310DA3D3E9002373
:10AE5000FCF7ECFD1349024613482EF0EAFD404092
:10AE600080F311884FF0030002DF1048214622F0E2
:10AE700075FB22F063FC6FF08B00AAE7AFF3008054
:10AE800000CA9A3B0000000019CE0400907A060028
:10AE9000906A060024690600B9B70400A469060098
:10AEA0008D49FD1AE47A06008C79060095B70400F6
:10AEB000F0B5C468A2894FF6FF739A4285B000F0DE
:10AEC0008B80054621F01AFE2B89628AE08A1A449B
:10AED00092B21044637FA28280B2411CE1825E067E
:10AEE0004FF00001618204F118015FD403F03F00CC
:10AEF0000B46A17F009004F11F001EF0C1FD064625
:10AF0000204603A921F02AFF039B94F872101A78B7
:10AF100061F3C3021A70039A94F872301178C3F384
:10AF2000400363F38201117022F05AFB002022F0EB
:10AF30007DFB201D22F098FB2389A17A40F25B6003
:10AF400043EA014122F040FC304620F083FB0399A4
:10AF5000204621F0D7FE2146374822F0FFFA9620FE
:10AF600022F080FD94F85B0000F0070022F04AFC1C
:10AF700027682E68384620F04DFB06446A6806F1C3
:10AF80000901012022F07AFD22F066FEA189053137
:10AF90003246C9B2384620F04BFB054618BB204666
:10AFA00020F0D2FA50B9002005B0F0BD0A4603F0F7
:10AFB0003F03E18B1EF0B0FD0646A1E71F4A204982
:10AFC000204840F203132EF034FD404080F31188F6
:10AFD0004FF0030002DFE6E71B48214622F0BEFAED
:10AFE00022F0ACFBDFE7154A18491648F9232EF08A
:10AFF00020FD174B0721A5FB030301FB05310CA323
:10B00000D3E90023FCF712FD1249024612482EF044
:10B0100010FD404080F311884FF0030002DF0F481D
:10B02000214622F09BFA22F089FB6FF08B00BBE7F0
:10B0300000CA9A3B000000004DCC0400F07A0600E4
:10B04000906A060024690600B9B70400A4690600E6
:10B050008D49FD1A407B06008C79060095B70400E7
:10B060002DE9F0472DED028B9FED498B4A4E84B0C0
:10B0700004464FF02003EFF3118783F31288BFF3E8
:10B080006F8FD4F8C8508DB9022104F1E00037F079
:10B09000FBF9002843D100238DED008B029304F1CE
:10B0A000D00239463D482AF02BFDE2E7D4F8CC2007
:10B0B0002B68C4F8C830954208BFC4F8CC30D4F827
:10B0C000E03043F00203C4F8E030EB6823F00403FF
:10B0D00043F00103EB606B6887F31188BFF36F8F58
:10B0E000284698474FF02003EFF3118983F3128825
:10B0F000BFF36F8FEB68990723F0010219D4EA6060
:10B10000D4F8E03023F00203C4F8E03089F311886A
:10B11000BFF36F8FDB05ACD42AF0D2FBA9E704F1B3
:10B12000D80500220121284637F0B4FB0028F8D1C9
:10B13000B1E7306823F00303EB600028E0D000277C
:10B14000D0F80080BA460028DAD04268954201461D
:10B150000BD1016897B972683160824200D1716089
:10B1600040F808AB29F0C8FF3946B8F1000F0BD002
:10B17000D8F8002040460F469046E4E739607268F0
:10B18000824208BF7760EBE74246F3E7AFF3008007
:10B19000FFFFFFFFFFFFFFFF80A30020F8A60020B6
:10B1A0007FB58DED000B019B254A23F000439342B0
:10B1B00006D89FED211B07B05DF804EB00F0C4BD7D
:10B1C000204A934204D907B05DF804EB00F0B0BD0B
:10B1D00002A800F039F800F0030001280BD0022883
:10B1E00019D0F8B99DED041B9DED020B00F0ACFDEC
:10B1F00053EC102B0AE09DED041B9DED020B01F0BA
:10B20000BFF951EC100B024601F1004343EC102B47
:10B2100007B05DF804FB9DED041B9DED020B00F0F3
:10B2200093FDEEE79DED041B9DED020B012001F067
:10B23000A7F9DDE7AFF30080000000000000000088
:10B24000FB21E93FFFFFEF7F2DE9F04F5BEC10ABF7
:10B25000C54B8DB02BF0004898450446CDF810B092
:10B2600007D80022002380ED000BC0E9022300254F
:10B2700028E0BE4B984578D8049BBD4D002B504626
:10B28000ABA3D3E90023594638DDFBF73DFFA845C2
:10B2900006460F461AD0A8A3D3E90023FBF734FFD4
:10B2A00002460B468046894630463946FBF72CFF5E
:10B2B000A1A3D3E90023FBF727FFC4E90089C4E970
:10B2C0000201012528460DB0BDE8F08F9CA3D3E90B
:10B2D0000023FBF719FF9CA3D3E9002306460F4682
:10B2E000FBF712FF02460B46804689463046394638
:10B2F000FBF70AFF94A3D3E90023DCE7FBF706FF83
:10B30000A84506460F4618D08BA3D3E90023FBF7C8
:10B31000FDFE02460B468046894630463946FBF71D
:10B32000F3FE85A3D3E90023FBF7F0FE4FF0FF35D2
:10B33000C4E90089C4E90201C4E781A3D3E9002379
:10B34000FBF7E4FE80A3D3E9002306460F46FBF794
:10B35000DDFE02460B468046894630463946FBF7FD
:10B36000D3FE79A3D3E90023DEE7824B984500F2B0
:10B37000CE802BF0004776A3D3E900235046394610
:10B38000FCF77AF87C4B0022FBF7C0FEFCF786FA4C
:10B390000546FCF707F802460B46CDE9022364A3F5
:10B3A000D3E90023FCF768F802460B4650463946BD
:10B3B000FBF7AAFE60A3D3E9002382468B46DDE9B2
:10B3C0000201FCF759F802460B4606460F46504666
:10B3D0005946FBF799FE1F2D05DC684B6A1E53F892
:10B3E0002230434508D14FEA28530593C1F30A534D
:10B3F000C3EB1853102B02DCC4E9000139E050A361
:10B40000D3E90023DDE90201FCF736F806460F46D2
:10B4100002460B4650465946FBF776FE02460B465F
:10B420008046894650465946FBF76EFE32463B46FB
:10B43000FBF76AFE44A3D3E9002306460F46DDE985
:10B440000201FCF719F832463B46FBF75DFE024667
:10B450000B4606460F4640464946FBF755FE059A01
:10B46000C1F30A53D31A312B20DCC4E90001C246D0
:10B47000CB46D4E90089504642464B465946FBF735
:10B4800043FE3B463246FBF73FFE049B002BC4E9DC
:10B490000201BFF617AF09F10043636001F10043F9
:10B4A000C4F80080A060E3606D420BE72AA3D3E9F3
:10B4B0000023DDE90201FBF7DFFF06460F460246E7
:10B4C0000B4640464946FBF71FFE82468B46024626
:10B4D0000B4640464946FBF717FE32463B46FBF714
:10B4E00013FE1FA3D3E9002306460F46DDE9020140
:10B4F000FBF7C2FF32463B46FBF706FE06460F4609
:10B5000002460B4650465946FBF7FEFD74E71C4BBE
:10B51000984537D952465B4650465946FBF7F4FDED
:10B52000C4E90201C4E90001A1E600BFAFF3008055
:10B5300000004054FB21F93F3163621A61B4D03DF1
:10B540000000601A61B4D03D7370032E8A19A33BCA
:10B5500083C8C96D305FE43F0000002E8A19A33B09
:10B56000C14920259A837B39FB21E93F7BD90240E1
:10B57000FB21F93FFB2139410000E03F64910600C7
:10B58000FFFFEF7F4FEA2855A5F21645A8EB0551BE
:10B5900050460F46FCF782F9FBF704FF02460B46C4
:10B5A00050463946CDE90623FBF7AEFD224B00227B
:10B5B000FBF762FF0F460646FCF770F9FBF7F2FE59
:10B5C00002460B4630463946CDE90823FBF79CFD81
:10B5D000194B0022FBF750FFCDE90A010DF13009AC
:10B5E0004FF003080026002779E9020132463B4666
:10B5F000C24608F1FF38FCF789FA0028F4D10F4B56
:10B600000193022300932A465346214606A800F0E0
:10B610005BFC049B002B0546BFF654AED4E9002129
:10B6200001F10043C4E90023D4E9022101F1004300
:10B63000C4E9022338E700BF00007041E49106002E
:10B640007FB58DED000B019B254A23F0004393420B
:10B6500007D89FED211B002007B05DF804EB00F038
:10B660008FBF204A934204D907B05DF804EB00F085
:10B670005FBB02A8FFF7E8FD00F00300012810D02F
:10B68000022815D008BB9DED041B9DED020B012087
:10B6900000F076FF53EC102B43EC102B07B05DF855
:10B6A00004FB9DED041B9DED020B00F04DFBF1E74B
:10B6B0009DED041B9DED020B012000F061FF51EC9C
:10B6C000100B024601F10043E6E79DED041B9DEDE2
:10B6D000020B00F039FBF2E7000000000000000060
:10B6E000FB21E93FFFFFEF7FF8B510EE904A34F001
:10B6F00000472DED048B10EE103AB0EE609A0DD19C
:10B7000083F480035B0013F5000F40F2098230EEF2
:10B71000098AB0EE480ABDEC048BF8BD23F0004066
:10B72000B0F1FF4F02D8B7F1FF4F08D9B3F17E5FF8
:10B73000EDD184F48004640014F5000FE5E7002BDC
:10B7400001462DDAB7F1974F0CD3B7F1FF4F2AD04E
:10B750000225B4F17C5F41D1002BC0F28F80B1EEA5
:10B76000C08AD6E7B7F17E5F31D3FA15C2F19602EF
:10B7700047FA02F505FA02F2BA423DD1B7F17E5F0F
:10B780004AD1002C80F2D281B5EE400AF1EE10FAD7
:10B7900050D1D80FBDEC048BBDE8F8402BF028BA8F
:10B7A000B7F1FF4F3DD1B0F17E5F00F0B98108D90C
:10B7B000DFED977A002CB4BFB0EE678AB0EE498A0D
:10B7C000A7E7002C80F2AF81B1EE498AA1E7B4F17E
:10B7D000804F34D0B4F17C5F5CD0002523F0404230
:10B7E000B2F17E5FB0EEC08A3FD1002CBCBFB7EE95
:10B7F000007A87EE088A29E0B7F17E5FC1D0002584
:10B80000B4F1804FEAD1B0F1BF4F1AD2B0F1D05F9E
:10B8100029D920EE008A7CE705F00105C5F1020573
:10B82000EEE7B7F17E5FACD0B4F1804F4FF000058A
:10B83000E9D08EE7B7EE007A87EE008A69E7002547
:10B84000E1E7B0F1FF4FB0EEC08A35D1002BBFF673
:10B8500060AFA0F17E50284316D1BDEC048BBDE84B
:10B86000F8402BF0D1B9B0EEC08A28BB002C1EDA0C
:10B87000002B8FDA6B1E584258418BE7B0F1FF4F17
:10B88000B0EEC08A40F05581012D7FF442AFB1EE99
:10B89000488A3EE7B0F1FF4FB0EEC08A3FF439AFBF
:10B8A000B0F17E5FD9D000283FF433AFD5E7012D4A
:10B8B00008BFB0EE408A2CE7DE0F013E55EA0602D3
:10B8C000CBD0B7F19A4F40F24081524B984208D802
:10B8D000002C0BDA0020BDEC048BBDE8F8402BF007
:10B8E00077B94D4B984208D9002CF3DC0020BDEC11
:10B8F000048BBDE8F8402BF05BB9B7EE007A38EE68
:10B90000478ADFED467ADFED469A3FA1D1E9000193
:10B9100068EE278AFBF7EAFF07EE900AB5EE007A99
:10B9200048EE477AB6EE007A07EEC87A68EE087AF3
:10B93000DFED3C6A27EE277AF0EE687A47EE667A0A
:10B9400068EE299A39EEA77A17EE103A23F47F634E
:10B9500023F00F0307EE103A77EE699A77EEE97A53
:10B96000013D24F47F643543B7EE007A24F00F04E0
:10B97000BFEE008A18BFB0EE478A07EE104A67EEA6
:10B98000890A39EE477A07EE903A47EE270A07EE22
:10B99000104A67EE877A30EEA77A17EE101A002960
:10B9A00021F000431ADDB3F1864F09D9B5EEC08A04
:10B9B000F1EE10FA4CBF012000208CE70120E5E0F9
:10B9C00036D1DFED196A37EE677A70EEA66AF4EECB
:10B9D000C76AF1EE10FAE9DC86232DE0134A9342A0
:10B9E00007D9B5EEC08AF1EE10FA4CBF0120002055
:10B9F0007DE71DD137EE677AB4EEE07AF1EE10FA0A
:10BA0000EADBEEE7AFF30080E13D55555555D53FF4
:10BA100000000000F3FF7F3F0700803F70A5EC3679
:10BA200000AAB83F3BAAB83F3CAA383300001643EF
:10BA3000B3F17C5F6FD9DB157E3B4FF400001841FA
:10BA40000844C0F3C753A04A7F3B1A41024007EEA7
:10BA5000102AC0F3160040F40000C3F11703184188
:10BA6000002977EEC77AB8BF404237EEA07ADFED03
:10BA7000976ADFED975A9FED976A17EE103A23F415
:10BA80007F6323F00F0307EE103A77EE677A67EED5
:10BA9000266A70EEE70ADFED907A67EE277A9FED6F
:10BAA0008F7A40EE877AB7EE000A36EEA77A77EE05
:10BAB000666A77EEE67A67EE076A47EE277A16EE51
:10BAC000A56ADFED875A46EE265A9FED866A15EE87
:10BAD000A66ADFED855A46EE265AB0EE476A05EEB5
:10BAE000E66AF0EE006A67EE065A36EE666AC5EE62
:10BAF000866A76EEE77A77EEC77A30EE670A10EE5E
:10BB0000103A03EBC053B3F5000F06DA2BF00AF836
:10BB100020EE088AFDE50020A7E700EE103AF7E7DF
:10BB2000B7EE008AF5E59FED718AF2E5B0EE408A46
:10BB3000EFE5B0F17E5F3FF48CAE00283FF4B7AE86
:10BB4000002D3FF48AAE0225002613F0FF4F08BFF8
:10BB50009FED677A674802BF68EE077A6FF01703B8
:10BB600017EE901A4FEAE15218BF00237F3A1A44A9
:10BB7000C1F31603834243F07E5106DD5E488342E3
:10BB80007FF71CAF0132A1F5000100205B4B03EBF6
:10BB90008003D3ED005A5A4B06EE101A75EE867AE2
:10BBA000F7EE006AC6EEA74A491041F0005101F5D0
:10BBB000802101EB405136EE657A07EE901A27EEB0
:10BBC000245A15EE107A1F4006EE907A06EEE77AB8
:10BBD00077EEE57ADFED4B5A36EE676A65EE057A69
:10BBE00006EE667A9FED486A47EE865A9FED476AF1
:10BBF00005EEA76ADFED465A46EE275A9FED456AE5
:10BC000005EEA76ADFED445A46EE275A27EE247A5E
:10BC100036EE856A67EEA77A26EE076A05EEA76A12
:10BC200066EEA64AF0EE085A74EEA57A77EE867AAA
:10BC300017EE901A194007EE901A77EEE55A27EEA4
:10BC4000277A75EEE45A66EEA76A36EE656A06EE66
:10BC5000057A9FED326A76EE877A17EE901A1940D0
:10BC600007EE901A77EEE66A27EE866A37EE667A76
:10BC7000DFED2B6A2B4967EEA67ADFED2B6A47EEE4
:10BC8000267A01EB800191ED007A77EE877A07EE54
:10BC9000102A264A02EB8002D2ED005A76EE276A7D
:10BCA000B8EEC77A76EEA56A76EE876A16EE902A27
:10BCB000134006EE903A36EEC77A37EE657A37EEE5
:10BCC000467A77EEC77A4BE6000080FF0072313F7C
:10BCD0004CBB31330EEADD358CBEBF351872313FB7
:10BCE00055B38A38610B363BABAA2A3E00000000F0
:10BCF0000000804B71C41C00D6B35D00FC920600AE
:10BD000000F0FFFF55326C3E42F1533E05A38B3EDF
:10BD1000ABAAAA3EB76DDB3E9A99193F0038763F31
:10BD2000A0C39D36EC9206004F38763FF492060091
:10BD300008B52AF0DDFF9FED020B08BDAFF30080D0
:10BD4000000000000000F87F2DE9F74F59EC108B40
:10BD500029F00046B6F1795F8DED001BC0F08880B8
:10BD600042464B4640464946FBF786FB504B002275
:10BD700004460D46FBF780FB3FA3D3E90023824630
:10BD80008B4620462946FBF777FB3DA3D3E90023EA
:10BD9000FBF7BCF922462B46FBF76EFB3AA3D3E92F
:10BDA0000023FBF7B1F922462B46FBF765FB38A3CE
:10BDB000D3E90023FBF7AAF922462B46FBF75CFBED
:10BDC00035A3D3E90023FBF79FF922462B46FBF767
:10BDD00053FB33A3D3E90023FBF798F922462B4604
:10BDE000FBF74AFB22462B46FBF746FBDDE9002327
:10BDF00004460D4640464946FBF73EFB0B460246CD
:10BE000029462046FBF780F92A4B9E428046894608
:10BE100010D802460B4650465946FBF775F90B46BB
:10BE2000254902460020FBF76FF941EC100B03B0E7
:10BE3000BDE8F08F214B20499E428CBF204DA6F5D6
:10BE40000015002422462B460020FBF75DF9224610
:10BE500006460F462B4650465946FBF755F94246D3
:10BE60004B46FBF751F902460B4630463946DAE7B6
:10BE70009FED0D0BDBE700BFD43888BEE9FAA8BD03
:10BE8000C4B1B4BD9EEE213EAD529C804F7E923E29
:10BE90009015CB19A001FA3E7751C1166CC1563FDF
:10BEA0004C5555555555A53F000000000000F03F8A
:10BEB0000000E03F3233D33F0000F03F0000E93F95
:10BEC0000000D23F000000002DE9F04F2DED028B65
:10BED000ADF51B7D12F1140F09930191BE4BA6998C
:10BEE0000A9053F821300493099B03F1FF33A8BF54
:10BEF000D41E0693B2BF0024182394FBF3F46FF012
:10BF0000170304FB033303EB020B049B069A9FED1C
:10BF1000AE8B03EB0208A79BA71A22AE03EB87099F
:10BF20000025454513DD099B22AA02EBC3050DF54B
:10BF3000E47A4FF00008049B984531DC9FEDA27B2A
:10BF4000DDF828908DED027B2F4600261BE0EF42A6
:10BF500007D459F82500FBF725FAE6E80201013578
:10BF6000DFE751EC180BF8E7D7E90023F9E8020105
:10BF7000FBF782FA02460B46DDE90201FBF7C6F841
:10BF8000CDE902010136069B9E42A7F10807EBDDD1
:10BF90009DED027B08F10108AAEC027B0835CAE797
:10BFA000049BDDF810900EAA02EB83030C93A79B71
:10BFB00003EB84030B934FEAC9030D939AAB03EB96
:10BFC000C90313ED287B8DED027B0DF1380A72ABAE
:10BFD00003EBC906D0464F46002FA6F1080677DCD2
:10BFE00058469DED020B2AF023FE55EC104B002223
:10BFF0004FF07F5320462946FBF73EFA41EC100BE9
:10C000002AF0B8FE754B51EC100B0022FBF734FA06
:10C0100002460B4620462946FBF776F80D460446B5
:10C02000FBF73CFC0890FBF7BDF902460B462046A7
:10C030002946FBF769F8BBF1000F06460F466BDD9A
:10C0400009F1FF310EAB089C53F82130CBF11800F9
:10C0500043FA00F2144482409B1A0EAA089442F854
:10C060002130CBF1170213410293029B002B62DDBA
:10C07000089B00220133089314466FF07F409145DE
:10C0800000F3B880BBF1000F07DDBBF1010F00F03A
:10C09000CA80BBF1020F00F0D180029B022B4AD173
:10C0A00032463B464E490020FBF72EF806460F4627
:10C0B000002C40D058469FED460B2AF0B9FD304683
:10C0C000394653EC102BFBF71FF806460F4632E0BB
:10C0D000444B0022DDE90201FBF7CEF9FBF7DEFB62
:10C0E000FBF760F9404B002204460D46FBF7C4F90C
:10C0F00002460B46DDE90201FBF706F8FBF7CEFB33
:10C10000D6E9002348F8040B29462046FAF7FEFF3B
:10C11000013FCDE902015FE706D109F1FF330EAA25
:10C1200052F82330DB159FE7304B0022FBF70CFD64
:10C13000002843D102900022002330463946FBF705
:10C14000E5FC002800F0CC8009F1FF3300220499BF
:10C150008B427BDA002A00F0968009F1FF390EABA2
:10C16000ABF1180B53F82930002BF6D058469FED51
:10C17000180B2AF05DFDDFF86CB009F1010372AA1B
:10C1800055EC104B4FEAC30802EBC3074E464FF085
:10C19000000A002E80F2DC804C46002CC0F20A819E
:10C1A000134B1F4672AB03EBC40306934FF0000A18
:10C1B0004FF0000B0026A9EB0405EFE002230293E9
:10C1C00056E700BFAFF30080000000000000000051
:10C1D000000000000000F03F049306000000204033
:10C1E0000000F03F0000703E000070410000E03FA2
:10C1F000183F0600514651F8043B54B96BB1013267
:10C20000C3F18073914541F8043C0ADD0B680AF1E3
:10C210000801C31A41F8043C012301328A461C4636
:10C220002DE701242EE709F1FF320EAB53F822303F
:10C23000C3F316030EA941F822302EE709F1FF32AD
:10C240000EAB53F82230C3F31503F3E70EA951F8F0
:10C250002310013B0A437AE7013453F8042D002AE6
:10C26000FAD00D9B03F51A730DEB0305099B22AA67
:10C270004B4409F10107983D02EBC3064C44BC4214
:10C2800004DAA14697E60C9B0124E6E70B9B53F8E2
:10C290002700FBF787F89FEDAE7BE6E802018DED06
:10C2A000027BDDF82890B2464FF00008069B9845C7
:10C2B00005DD9DED027B0137A5EC027BDFE77AE926
:10C2C0000223F9E80201FBF7D7F802460B46DDE945
:10C2D0000201FAF71BFF08F10108CDE90201E5E7C9
:10C2E000CBF1000047EC106B2AF0A2FC55EC104B90
:10C2F000994B002220462946FBF726FC00B3974BBA
:10C30000002220462946FBF7B7F8FBF7C7FA064696
:10C31000FBF748F8904B0022FBF7AEF80B460246BD
:10C3200029462046FAF7F0FEFBF7B8FA0EAB0BF100
:10C33000180B43F8290009F1010943F8296015E7B2
:10C3400020462946FBF7AAFA0EAB43F829000DE771
:10C350000EAB53F82600FBF725F822462B46FBF7D9
:10C360008BF8524667E902015B4620462946FBF7F7
:10C3700083F8013E04460D460BE70699F1E80223D7
:10C380000691F7E80201FBF777F802460B465046A4
:10C390005946FAF7BBFE013682468B46049B9E4205
:10C3A00001DCB542E9DA4AAB03EBC505C5E900ABF0
:10C3B000013CF2E6A69B022B0BDC002B38DC5AD0AA
:10C3C000089B03F007000DF51B7DBDEC028BBDE85B
:10C3D000F08FA69B032BF3D108F51A730DEB030422
:10C3E000A4F5A4742546CA46BAF1000FA5F10805C4
:10C3F00067DC4D46012DA4F1080400F383804AABAD
:10C4000003EB080400200021B9F1010F00F398802C
:10C41000029BDDE94A78DDE94C56002B40F0A08014
:10C42000019BC3E90078C3E90256C3E90401C7E7E9
:10C430004AAB98444C4600200021002C32DA029B83
:10C44000002B35D0024601F10043019CC4E90023D2
:10C4500002460B46DDE94A01FAF756FE4CAD0124CF
:10C46000A14528DA029B13B101F100431946019B53
:10C47000C3E90201A4E74AAB984400200021B9F1C6
:10C48000000F08DA029B13B101F100431946019B2A
:10C49000C3E9000194E778E90223FAF737FE09F1CE
:10C4A000FF39ECE778E90223FAF730FE013CC4E7F4
:10C4B00002460B46C9E7F5E80223FAF727FE0134E6
:10C4C000CEE795ED007B8DED047B95ED027BDDE9FC
:10C4D000040153EC172B8DED067BFAF717FE02468D
:10C4E0000B4606460F46DDE90401FAF70DFEDDE9CD
:10C4F0000623FAF70BFE0AF1FF3AC5E90201C5E986
:10C50000006771E794ED007BD4E902AB51EC170BA7
:10C5100052465B468DED047BFAF7F8FD02460B466A
:10C5200006460F46DDE90401FAF7EEFD52465B468A
:10C53000FAF7ECFD013DC4E90201C4E9006759E7DF
:10C5400074E90223FAF7E2FD09F1FF395CE700BF65
:10C550000000000000000000000070410000703E7C
:10C56000019B019A1F6008F100445C609D6006F128
:10C570000043D36001F100431061536120E700BF25
:10C580002DE9F04F5BEC10AB2BF0004385B0B3F11D
:10C59000795F8DED001B804604D205B0BDE8F04FF9
:10C5A00036F01CBE52465B4650465946FAF764FFC9
:10C5B00004460D4602460B4650465946FAF75CFFC4
:10C5C0003EA3D3E9002306460F4620462946FAF744
:10C5D00053FF3CA3D3E90023FAF796FD22462B46EE
:10C5E000FAF74AFF39A3D3E90023FAF78FFD224671
:10C5F0002B46FAF741FF37A3D3E90023FAF784FD6E
:10C6000022462B46FAF738FF34A3D3E90023FAF782
:10C610007DFDCDE90201B8F1000F17D102460B46AE
:10C6200020462946FAF728FF2EA3D3E90023FAF77C
:10C630006BFD32463B46FAF71FFF52465B46FAF760
:10C6400065FD41EC100B05B0BDE8F08FDDE90001A0
:10C65000194B0022FAF710FFDDE9022380468946D4
:10C6600030463946FAF708FF02460B46404649462F
:10C67000FAF74AFD22462B46FAF7FEFEDDE90023D3
:10C68000FAF742FD0AA3D3E9002304460D463046DB
:10C690003946FAF7F1FE02460B4620462946FAF7DC
:10C6A00033FD02460B4650465946FAF72DFDC8E7C2
:10C6B000495555555555C5BF0000E03F7CD5CF5A6B
:10C6C0003AD9E53DEB9C2B8AE6E55A3E7DFEB15713
:10C6D000E31DC73ED561C119A0012A3FA6F810117C
:10C6E0001111813F495555555555C53F0000000072
:10C6F00010B19FED030B70479FED030B704700BF18
:10C7000000000000000000800000000000000000A9
:10C7100010B19FED030B70479FED030B704700BFF7
:10C72000000000000000F0FF000000000000F07FAB
:10C730000146014828F046BB9417002007B50B4B73
:10C740001B787BB104F026FE0378013B092B09D846
:10C75000074B00930023ADF8043000220023684605
:10C76000FFF7E6FF002003B05DF804FB7EA4002085
:10C770000100D0072DE9F041144FDFF8588004463E
:10C780000E4600253A780123AB4062401A42D8B2E7
:10C7900008D0044218F805100D48836814BF1B68C0
:10C7A0005B6898470135032DECD15EB140F2E7306C
:10C7B0004FF47A72002300EBC6300021FBF736F904
:10C7C00029F000F93C70BDE8F08100BF7DA4002095
:10C7D000643706001596060037B51C491C481D4DE8
:10C7E0001D4C35F008FF4FF0FF3269464FF0FF3324
:10C7F000284628F03DFBBDF802109DF8000009B363
:10C80000164B1B78834205D123B14FF4FA710020F7
:10C81000FFF7B0FFBDF802109DF80000FFF7AAFF78
:10C820009DF800202378934205D123B14FF4FA718B
:10C830000020FFF79FFFBDF804102078002908BFF3
:10C840004FF4FA71FFF796FFCDE700BF1F6E0500AA
:10C85000601E0020941700207CA400207DA40020EE
:10C86000024840F20D22002328F0E4BD601E0020A3
:10C8700008B5034B1B780BB1FFF7F2FF002008BD92
:10C880007EA4002007B503F05DFD0B4B0B4A1B5C3B
:10C89000117899420CD013700022CDF801208DF848
:10C8A00005208DF80030002200236846FFF740FF86
:10C8B00003B05DF804FB00BFF59506007CA40020E2
:10C8C00008B501F0C7FF40B10378022B03D1002166
:10C8D0000846FFF74FFF002008BD034B1B78002BD5
:10C8E000F9D0FFF7CFFFF6E77EA4002008B52AF0C5
:10C8F000B9FA00214FF4A03029F064F8FFF7B0FF37
:10C90000FFF7C0FF014B01221A7008BD7EA4002072
:10C9100010B4074B1C6813689C4205D1054B064AAE
:10C920005DF8044B2CF00ABC00205DF8044B704706
:10C93000A84E0020AC4E0020C47F0600002207480D
:10C94000074910B5144601322AF0BEFA042AC47110
:10C9500000F12700F7D1002010BD00BF7FA4002008
:10C960008AA206002DE9F04788B0174629496A4691
:10C9700098462DF03AFD002846D00099002943D072
:10C98000112203A836F061FB002323498DF81D30E6
:10C9900001AA03A80AF0A0F978BB204EDFF884A012
:10C9A0004FF0FF340025B14601A930462AF084FA41
:10C9B00070BB621C06D1514630462AF07DFA002831
:10C9C00018BF2C460135042D06F12706ECD1631C57
:10C9D0001AD027235C4309EB040501A92846073434
:10C9E0002AF072FA202209EB04014046B8470028D9
:10C9F000A4BF002385F8263006E0094901AA03A850
:10CA00000AF06AF90028C8D0002008B0BDE8F08715
:10CA10002C46DEE7189606001D9606007FA400202F
:10CA2000249606008AA206002DE9F04FA84DEDB02D
:10CA300004460E464FF49C720021284636F046F913
:10CA4000A44AA54B33601368013313607360282236
:10CA5000002115A836F03AF9A288A11D0AA824F0F1
:10CA600037FD9E4915AA0AA834F067FF0146B8B9F8
:10CA70001F903C2220A836F029F999491FA8FBF7FE
:10CA8000D1F9012325F8043B1FAC0FCC0FC50FCC07
:10CA90000FC50FCC0FC594E80F0085E80F0085E0A7
:10CAA000BDF85430013B072B00F29881DFE813F00A
:10CAB00008009B00030132016F0176017D018E01A8
:10CAC0008849DFF840924FF49A721FA836F0D6F8E2
:10CAD00004236B9304F058FA1FAE80460027FCB283
