:020000022000DC
:107000004082002039BF0200B19504000DBF02008C
:107010000DBF02000DBF02000DBF02000000000006
:107020000000000000000000000000005DC0020041
:107030000DBF020000000000C9BF02000DBF02002A
:107040007DC2020035D603007DC202007DC202006F
:107050007DC202007DC202007DC202007DC202002C
:107060007DC202007DC202007DC202007DC202001C
:107070007DC202007DC202007DC202007DC202000C
:107080007DC202007DC202007DC202007DC20200FC
:107090007DC202007DC202007DC202007DC20200EC
:1070A0007DC202007DC202007DC202007DC20200DC
:1070B0007DC202007DC202007DC202007DC20200CC
:1070C0007DC202007DC202007DC202007DC20200BC
:1070D0007DC202007DC202007DC202007DC20200AC
:1070E0007DC202007DC202007DC202007DC202009C
:1070F0007DC202007DC202007DC202007DC202008C
:1071000053B94AB9002908BF00281CBF4FF0FF310E
:107110004FF0FF3000F00CB8ADF1080C6DE904CE73
:1071200000F008F8DDF804E0DDE9022304B0704760
:10713000704700BF2DE9F04786468C460846089EFA
:10714000154674461946002B40F0C2808542B2FABB
:1071500082F245D94AB1C2F1200300FA02FC2EFAAC
:1071600003F3954043EA0C0C94404FEA154EA8B245
:10717000BCFBFEF8230C0EFB18CC08FB00F943EA1D
:107180000C43994528D9EB1808F1FF3704D29945EB
:1071900002D9A8F102072B44A3EB0903A4B2B3FB65
:1071A000FEFC0EFB1C330CFB00F044EA0344A0423F
:1071B00014D92C190CF1FF3304D2A04202D9ACF13E
:1071C00002032C44241A43EA07401EB1D440002392
:1071D00034607360BDE8F0874746DDE76346F1E75A
:1071E00092BB431B01214FEA154EAFB2B3FBFEFC2D
:1071F000200C0EFB1C330CFB07F840EA03439845B8
:1072000062D9EB180CF1FF3004D2984502D9ACF1E9
:1072100002002B44A3EB0803A4B2B3FBFEFC0EFB5D
:107220001C330CFB07F744EA0344A7424ED92C1940
:107230000CF1FF3304D2A74202D9ACF102032C4473
:10724000E41B43EA0040C0E7C2F1200320FA03F147
:10725000954090402EFA03F303434FEA154EAFB228
:10726000B1FBFEFC0EFB1C10190C0CFB07F841EAED
:107270000041884504FA02F422D969180CF1FF3064
:1072800004D2884502D9ACF102002944A1EB0801DF
:107290009BB2B1FBFEFC0EFB1C110CFB07F743EA93
:1072A00001439F420ED9EB180CF1FF3104D29F42EB
:1072B00002D9ACF102012B44DB1B41EA004192E709
:1072C0006046E3E76146F7E76046A3E76346B7E752
:1072D000834206D916B9002108467BE7C6E900E0DB
:1072E000F9E7B3FA83F78FB9834201D3724508D81F
:1072F000BEEB020460EB030301209C461EB9002193
:1073000068E73846FAE7C6E9004CF8E7C7F1200C11
:10731000BB4022FA0CF41C432EFA0CF120FA0CF3B9
:10732000B84001434FEA14490EFA07F5B3FBF9F8E8
:107330001FFA84FE09FB18300B0C08FB0EFA43EA17
:1073400000439A4502FA07F240D9E31808F1FF30EA
:1073500004D29A4502D9A8F102002344A3EB0A0300
:1073600089B2B3FBF9F809FB183308FB0EFE41EABA
:1073700003418E452CD9611808F1FF3304D28E45A4
:1073800002D9A8F10203214443EA0040A0FB02987D
:10739000A1EB0E014145CE46434602D306D14D45F1
:1073A00004D2B9EB020E68EB04030138002EA6D01C
:1073B000B5EB0E0261EB030101FA0CFC22FA07F3B4
:1073C0004CEA0303F940C6E9003198E74046C5E7B7
:1073D0004346D9E710F8012B11F8013B012A28BFD9
:1073E0009A42F7D0D01A7047034611F8012B03F8E0
:1073F000012B002AF9D17047034613F8012B002A0C
:10740000FBD1181A01387047F7B53E4DD5F85C31FD
:10741000996811F0010121D101AA40F6034005F05D
:10742000FFFD044600286AD10198C3681B789BB908
:10743000BFF35B8FD5F8D430BFF35B8F05F1D40277
:1074400003F00903BFF35B8F52E8001F42E80034EA
:10745000002CF9D1BFF35B8F18F0DEFF01AA0021E9
:1074600041F2030005F0DCFD0446002847D1019BF2
:10747000254EDA68D2F80100D2F8051003C6184686
:1074800018F0CAFF214601AA41F2010005F0C8FD2B
:107490000446A0BB0198C3685A7885F870205A88C2
:1074A000A5F872201A7985F87120B3F80720A5F89D
:1074B0007420B3F80530A5F8763018F0ADFF2146FA
:1074C00001AA41F2020005F0ABFD0446B8B9019FE4
:1074D000FA68531C413218685968344603C40833AB
:1074E00093422646F7D1094822F021F9384618F090
:1074F00093FF95F87C305B060AD46FF012042046A7
:1075000003B0F0BD000000207800002080000020C3
:1075100001AA002142F2030005F082FD0446002882
:10752000EDD1019BB64EDA68D2F80100D2F8051011
:1075300003C6184618F070FF214601AA42F2020065
:1075400005F06EFD04460028D9D1019CE368B3F82C
:10755000012091B249B1D97839B1A5F80421DA787E
:10756000114606F1280026F032FB204618F054FFA1
:1075700095F87C6016F0200618D1022140F66D4087
:1075800005F0F2FC0446002800F0CC8002210C300B
:1075900025F0AFF90123037046702146324640F6CC
:1075A0006D4005F03DFD04460028A8D195F89C30BB
:1075B0001F0712D501AA002142F21C0005F030FD80
:1075C000044600289BD10198C368D3F80120D3F862
:1075D0000530C5E9382318F01FFF95F8D8309E060E
:1075E00024D50DF10201684622F064FB0446002810
:1075F00085D1042142F2240005F0B6FC064600289D
:1076000000F0908004210C3025F073F9BDF80030B3
:107610000380BDF8023043802246314642F2240006
:1076200005F0FEFC044600287FF469AF95F8D830D9
:107630005C0610D501AA002142F22A0005F0F0FCF8
:10764000044600287FF45BAF0198C3685B7885F837
:10765000203118F0E1FE082142F2010005F084FC1F
:10766000044600285ED008210C3025F042F995F838
:10767000D81011F0400F024640F2022308BF032346
:1076800088074CBF43F02C0043F00C0095F8D9302C
:107690008F0648BF40F0400013F0090F95F8A23064
:1076A00018BF40F4006003F00603CE0748BF40F067
:1076B0001000062B08BF40F4C070002122F0C6F96C
:1076C0002146002242F2010005F0AAFC04460028EF
:1076D0007FF415AF95F87C30B5F80411980624D4E2
:1076E000C9B901AA41F2050005F09AFC0446002838
:1076F0007FF405AFB5F80431019C4BB9E368B3F8EA
:107700000120A5F804219A883E48114626F05FFA28
:10771000204618F081FE082140F6014005F024FCC7
:10772000044638B96FF06804E9E60029F3D16FF038
:107730000404E4E608210C3025F0DBF895F8D83095
:10774000D907024653BF4FF000512BA1D1E90001E8
:107750002D4822F07BF92146002240F6014005F039
:107760005FFC044600287FF4CAAE014601AA4FF62A
:10777000014005F055FC044620BB019818F04CFE72
:10778000214601AA4FF6024005F04AFC0446C8B95A
:107790000198C368B3F80130A5F8C13018F03CFE79
:1077A00095F8C1305B070DD501AA21464FF603407D
:1077B00005F036FC30B90198C3685B7885F8C030B5
:1077C00018F02AFE22F0EAFC044600287FF497AE67
:1077D00007F092FB044600287FF491AEEB79002B72
:1077E0003FF48DAE0821094822F073F805F0CCFE75
:1077F00085E600BFAFF30080908800020080002083
:10780000D80000200801002010880002D4000020C9
:107810002DE9F843D0E90C35D0F82C805C193034D0
:10782000A0450F46164619D81D4DA3FB05011AA306
:10783000D3E90023FFF764FC0346A4EB0800A0FB98
:10784000050123F07F4414A3D3E90023FFF758FC7C
:1078500020F07F403C603060BDE8F883DFF8409066
:107860000DA3D3E90023A8FB0901FFF749FC044657
:1078700005F1300008A3D3E90023A0FB0901FFF7BD
:107880003FFC24F07F4420F07F403C603060BDE846
:10789000F88300BFAFF300808D49FD1A0700000098
:1078A00000CA9A3B000000009FED097B0E4B0F4A77
:1078B0000F4983ED007B9FED087B82ED007B9FED00
:1078C000087B0C4B002281ED007B1A600DF064BB3D
:1078D000FFFFFFFFFF1F000000000000000000008E
:1078E0001F0000000000000080010020601A00203E
:1078F00078010020E0360020002800F046812DE9C4
:10790000F04FC94C94F86A2012F001058DB040F098
:10791000788194F82500FF2300F0030084F82630D6
:1079200015F072FA94F86A00420727D494F82920D7
:1079300094F8353004EB820204EB8303D66AD3F863
:10794000388086B1B84831460FF0DAF833785B06F4
:1079500005D506210AF0ACFB002800F05481B2489E
:1079600041460FF0CDF8337813F00E0F40F09E80B3
:10797000236A93B10C200DB0BDE8F08F2A4604F1C4
:107980006B01C0F3C00015F0AFFBFF2884F82600A0
:10799000CCD0284615F052FAC8E70CF047FC8146D7
:1079A000002800F054810CF04DFC8246002800F0C5
:1079B0004B810FF093FB0546002800F04A81D0F878
:1079C00088004FF6FF732B8505F11C0B002800F093
:1079D000208105F17C0205F178010AF075FBB5F80C
:1079E000763023F4EF6323F0070343F4887343F006
:1079F0000103A5F8763095F8393003F03F0363F0C2
:107A00007F0385F8393095F88E3023F0070385F829
:107A10008E3095F83C3023F00703002785F83C3082
:107A20004FF4C023C5F888312846C5E91277C5F858
:107A30008870A5F88C706F86C5F82E7085F83B703D
:107A40002F65A5F88E71A5F8847111F0B9FC85F841
:107A50005071C5F854910FF0CDFD95F8943160F355
:107A6000020385F894310FF0CBFD95F8943160F363
:107A7000C50385F8943195F8803167F3410385F8A3
:107A800080310121284610F0D7F905F1D40011F01A
:107A900051FAC4E9189AC4F820B0C5E905772F70E7
:107AA000ED6116F067FB002840F0AF8094F82430B9
:107AB0000121C3F342030DF12B008DF82B300AF0A6
:107AC000A1FC0246002862D098F8011030460EF062
:107AD000D9FD31235549A360554BB4F86870A0FB1C
:107AE00001010025C01841F107014DA3D3E900238E
:107AF000C4E9055525706560E560FFF701FB20616D
:107B00000BF092FE00F109083FB9357805F00F053A
:107B1000A5F10105B5FA85F56D0994F824002369EE
:107B200065F3000010F0010584F8240036D0414AC6
:107B300009920020106002253F4A404F04930BAE8B
:107B4000019305920321CDE902000694434600907B
:107B5000089607972A460B950BF068FD31460CF006
:107B60002BFCA0B9364905914AF2D8330093CDE9F0
:107B70000300CDE9010007970896069443460122C9
:107B800003210B950BF036FD2EE00EF0CBBC236AE3
:107B9000002B3FF4EFAE0EF083FCEBE6254A2948BC
:107BA000049303F247130694029591211360A7FBF7
:107BB000000301FB0731214B07931F4B05934FF641
:107BC000FF730992022703930BAE15A3D3E9002399
:107BD0000B970896FFF794FA4346CDE900503A46D2
:107BE000284603210BF022FD31460CF0E5FB00286E
:107BF000CDD194F86A300120034384F86A3015F03F
:107C0000E5F80020B7E61220B5E60EF049FC0320A7
:107C1000B1E605F18000C5F88800DAE6AFF3008030
:107C20008D49FD1A070000001837002000CA9A3B52
:107C30008C49FD1A0C370020016703007D390300D1
:107C40001D620300002AE78448460CF0F5FA07207D
:107C500091E650460CF0FCFA48460CF0EDFAF6E7D7
:107C600070B590F824308AB0C3F342030D46044641
:107C700001210DF1230016468DF823300AF0C2FBD6
:107C80007178024628460EF0FDFC1F491F4AA0FBF2
:107C90000131981841F1070119A3D3E90023FFF737
:107CA0002FFA23699842054621D21B1A002201921D
:107CB000174A0293174BA21AA3FB02320221920920
:107CC00000230A4409AE099113490591CDE9033314
:107CD0000321D2B20696009318460BF007FD3146F9
:107CE0000CF06AFB38B9256100200AB070BDFBD9E1
:107CF000C21A0023DBE70C200AB070BDAFF300808E
:107D00008D49FD1A0700000000CA9A3B8C49FD1AF4
:107D10001837002009CB3D8D7D390300000000009D
:107D20002DE9F04F05468BB08B46012002219A4683
:107D3000144618F009F900220221814601200AF0B8
:107D400013FA39494FF4D07228460AF09DF9C61C3F
:107D5000F6B2364B00953246012100200BF0DEFCD6
:107D600010F0FD0F0CD0324A3249334840F62F0351
:107D70001FF0B1FE404080F311884FF0030002DF96
:107D80002E4BA4FB0348204625A3D3E900234146FC
:107D9000FFF7B6F9089506952B690493284B20F058
:107DA0007F47A7FB0331E01A264B07934FF00702EA
:107DB000254B059302FB07114FF6FE7368EB01019B
:107DC00003934FF47A720023FFF79AF9CDF800B0CD
:107DD000CDE9017053463246012100200BF00AFC28
:107DE00010F0FD0F0CD0124A1249134840F644031C
:107DF0001FF071FE404080F311884FF0030002DF56
:107E0000B9F1000F02D10BB0BDE8F08F01220221C1
:107E100010460BB0BDE8F04F0AF0A6B9AFF30080F2
:107E20008D49FD1A07000000681A002085700300C4
:107E300000FC0400C4FC040038F7040000CA9A3BAC
:107E40008D49FD1A2D70030035C3030000000000AA
:107E50002DE9F043C469228D4FF6FF739A428DB02D
:107E600000F088800546204611F02CFD95F828305A
:107E7000012B00F00F81022B00F00281002B00F09B
:107E8000E18094F85071002F40F0FD80E68DB4F849
:107E90003080002E71D1AA8C08F101060023CDE9B3
:107EA0000A33B6B2002A70D094F93930002BC0F2F0
:107EB00048810023A4F88A3195F82630D90740F18B
:107EC000EF800023A4F88E310DF1270231462046C1
:107ED00011F0B2FA743000F04681B4F888312BB159
:107EE000B34240F20D819B1BA4F88831B4F8843171
:107EF0002BB1B34240F2FB809B1BA4F88431258E4A
:107F000017B9A84500F0EA800135ADB294F8D13038
:107F100013F001065AD1DDE90A130A46002B40F09E
:107F2000ED80002900F0DC801E461846228DE469B1
:107F30000694CDE903570332A74D0290CDE9001610
:107F4000D2B20121002005950BF0D0FB10F0FD0FFF
:107F500010D00CF05BFA84420CD0A04AA049A14892
:107F600040F215531FF0B7FD404080F311884FF0E9
:107F7000030002DF0DB0BDE8F083AA8C4644002365
:107F8000CDE90A33B6B2002A8ED195F82630DA0749
:107F900097D4B4F88A31002B00F08280B34240F2CB
:107FA000FA809B1BA4F88A31B4F88E31002B8BD059
:107FB0009E4280F0DE809B1B9BB20022062BA4F821
:107FC0008E31228600F2AC8001277DE794F93920BA
:107FD0006FF30003002A84F8D13077DB94F8760041
:107FE000C0F3C00100F0070015F02AFFB4F86E20BE
:107FF000B4F86C30134403F2D51303447A4A7B4837
:108000000721E3FB0021104671A3D3E90023FFF70A
:1080100077F8DDE90A1320F07F422069226190425F
:1080200035BF161A801A002000260A46002B7FF45E
:108030007DAF56EA010C7FF479AF002850D0194685
:108040001E4673E794F88E3003F01803182B7FF464
:1080500018AFA18DB4F886218B1D9A42C4BF931F1F
:108060005B1AB4F88211CCBF9BB21346994200F060
:108070008C80A4F88231A4F88431A4F8882100E728
:108080003D2784F85071394620460DB0BDE8F043D5
:108090000FF092BB0023A4F88831A4F88431F0E6F5
:1080A000B4F88E31002B83D1628DB4F88C3140F25C
:1080B000E24101FB02F242F2107101FB0323013B9A
:1080C000B3FBF2F39BB2A4F88E316FE794F877001C
:1080D000012100F0070015F0B5FE87E73D4615E7E2
:1080E000002D4BD000261146304633461EE70023B4
:1080F000A4F88431204611F03FFA00E7304615E736
:108100000CF0ECF8014600283BD00023A4F888319D
:10811000238DC3801B23037100680CF0A9F8E5E6EA
:1081200094F939309342BFF6CFAEB8F1000F7FF427
:108130004BAFD4F878315A08DB0743D4C4F8782120
:10814000C2E628460AAA0BA904F1D409FFF760FB8E
:10815000484610F031FF18B3484610F02DFF18B311
:1081600000232386A5E69DF8271020460FF024FB68
:1081700000E7082120460FF01FFBFBE6002FB1D1DE
:10818000F8E60123A4F88831B0E6B4F88811002994
:108190007FF477AE6FE73E2120460FF00DFBE9E656
:1081A000FF200FF0C9FAD7E70246D4E91E0109F013
:1081B000A3FF0028D4D194F83C30580744BFA38DC6
:1081C000238676E642F00042C4F87821FCE600BF40
:1081D0008D49FD1A07000000ED6F030000FC04004C
:1081E00028FD040038F704008C49FD1A00CA9A3BA8
:1081F0002DE9F04F87B0CDE90423BDF84420037882
:108200000292BDF84820BDF84080BDF84C50468E23
:10821000B0F82E90B0F814B1019104460392002BEF
:1082200000F08E80013EB6B2A368D4F80C71721BC8
:1082300092B2002B009209DAE168626823F00043F1
:1082400091422CBF7F18BF18A360FF1A009A638D5C
:1082500013FB02F39BB2B3FBF8F218FB02F080B2FF
:1082600083421FFA82FA5AD2C01A40F2E2425E49B1
:1082700002FB00F0A0FB010159A3D3E90023FEF7A4
:108280003FFF20F07F400744D94494F839304D44F3
:10829000AD1B554440F2E246DB09E58506FB08F5D7
:1082A00052D1524A5249534840F6BA031FF013FCC8
:1082B000404080F311884FF0030002DF0026A946FA
:1082C000029BA385039BA4F88C3129462046A4F881
:1082D0002A8011F0EDF8484BA18D2B44881DB3FB8B
:1082E000F5F39AB29042A4F8862102D2521A063AC5
:1082F00092B2019BA4F8822113B10023A4F88E311D
:108300003B464A4631462046FFF70AFD94F8803145
:1083100043F0010384F8803107B0BDE8F08F08FB1B
:108320001231314840F2E24389B203FB01F1A1FB73
:1083300000012BA3D3E90023FEF7E2FE3F1AA3E7D7
:108340004E445E44B6B26FE7226C0099A36CDFF82E
:1083500098B002FB1133A36415F05CFF814694F8DA
:108360007401C0F3420015F057FF049B814406FBE3
:1083700003F305FB09F9236509F574291F4B09F27D
:108380003F29A3FB09394FEA994303FB0AF0236411
:10839000A5EB0309A36C6A080344963A934228BFED
:1083A0001346C4E911230023C4F87C31A0FB0B0160
:1083B0000BA3D3E90023FEF7A3FE114B059A3F1A46
:1083C000A3FB0230800A06FB00F005A3D3E90023DB
:1083D000A0FB0B01FEF794FE20F07F4670E700BF84
:1083E0008D49FD1A0700000000CA9A3B00FC0400FA
:1083F000B8F7040038F704007FC3C90183DE1B43CC
:108400005917B7D1000000002DE9F04F0B6891F823
:108410001180D3F80090037F176895B00446C3F32A
:108420008013D0F81E008DF83F30B8F1FF0F638C39
:1084300012900E461546ADF84C300DF1480A49D160
:108440009AE803001090ADF844102346E28D53F8EB
:108450002EBB9B78AB722A81D4F82A306B60D4F89B
:108460003A30AB6105F1180094F83E3003710521F4
:1084700009F0C8FF6B7F00F03F0060F305036B77E6
:1084800094F83F30C3F30402AA77A28EEA81012850
:1084900003F01F0392B205D91B3303F01F030B2B0C
:1084A00000D81ABB0022C9F8142095F8203062F3D6
:1084B000000385F82030E5680126584621462671DC
:1084C0000BF0CCFE28682E7129460BF0D1FE15B0BA
:1084D000BDE8F08F10AA0DF13F01404614F022FADA
:1084E0009DF83F3002338DF83F30AEE7336800210E
:1084F0005960E38EEA892B8240F2E24303FB02F2E9
:108500000B92628E0D92384610F0E6FF94F83F20F1
:1085100097F87411520962F3430187F8741115F04A
:1085200079FE0C9097F87401C0F3420015F074FEC8
:108530000C9A0B99104401FB00F0B94A00F5742025
:1085400000F23F20A2FB00204A08800C963A6862A5
:10855000AA6294F8312040F2E24302FB03F3AB63DA
:10856000238FA7F88C31384610F0A2FF0B99AD4B42
:10857000AD4AC7F890210B44B3FBF1F39AB2A7F8C8
:108580008621298A881D824204DDC1F57F41FA31A6
:108590000A4492B2A7F882216B68C7F87831234663
:1085A00013F81C2FC2F340120C92DA0700F113816A
:1085B0004FF48073A38399F8260014F0A9FE04F108
:1085C0002B03002800F0EB80626AC4F82B20228D78
:1085D0009A80B8F1FF0F00F0E680BAF804301298E4
:1085E000A4F82930C4F825009DF83F30A3771098EF
:1085F000BDF84430C4F81F00A4F82330EB8963862B
:108600002B8AA386B7F88C31E38697F87431C3F3CD
:10861000420384F8383038460EF06CFDA881E080C3
:108620002146584674680BF019FEAB89E3801C2381
:1086300023710C9BD4F80080002B40F0BA800C9B77
:108640002377214640460BF013FE95F85B00B5F802
:108650005080B5F85240012100F0070015F0F2FB00
:10866000444404F2D514DFF8CC81044482466F48B8
:108670000721E4FB080131230024BB607C6066A372
:10868000D3E90023FC60FEF73BFD20F07F4038611A
:108690000B9B6D6A0D995D1BF36840F2E24202FB91
:1086A000013303F2B241A1EB0A0A22460221012062
:1086B00009F05AFD48460EF0DFF90246AAFB080110
:1086C000924655A3D3E90023FEF71AFDCDF8049096
:1086D000B3685749009120F07F480AF102023A3B03
:1086E000D2B22046434401210BF05AF801287FD032
:1086F00099F82430DB0766D438460EF0FBFC4D4B6E
:10870000A5FB03A9044644A3D3E9002350464946E8
:10871000FEF7F6FC484BB668484A079220F07F45C2
:10872000A5FB0331BAEB0300454B059340F2D1138F
:10873000069708933B694FF0000BCDE903B34FF068
:10874000070303FB051169EB01014FF47A72002363
:10875000FEF7D6FC03343A3EE4B2CDE90150CDF841
:10876000008033462246012158460AF043FF10F0AC
:10877000FD0F0CD0334A344934484FF4E9731FF0ED
:10878000AAF9404080F311884FF0030002DF012274
:108790000221104609F0E8FC15B0BDE8F08FC4F8DE
:1087A0002B00988015E70022C4F82520A4F8292082
:1087B0001AE76B7F43F040036B77281D13F0BCFE74
:1087C0000123E8833CE70023012200931846114669
:1087D0000AF0A4FF90E71B4A1D491C48F8231FF02C
:1087E0007AF9404080F311884FF0030002DFDFE6A2
:1087F0000BF00CFE81453FF47BAF124A154913483C
:1088000040F279231FF067F9404080F311884FF060
:10881000030002DF6CE700BF8D49FD1A070000006E
:1088200083DE1B437FC3C901404B4C008C49FD1ABA
:10883000F9C2030000CA9A3B8D49FD1AC9C2030060
:1088400035C30300B0010500C4FC040038F7040080
:10885000D4F904000C02050010B5334C3349002351
:1088600004F1FF3C14F83320072A02EB820E05D8EE
:1088700011F83E206FF3451201F83E201CF833201A
:108880006FF300020CF833200133082BEAD1284A99
:10889000284C002313700A7863F300020A7091F8E1
:1088A000282063F3000281F8282091F8502063F318
:1088B000000281F8502091F8782063F3000281F8DB
:1088C000782091F8A02063F3000281F8A02091F8AD
:1088D000C82063F3000281F8C82091F8F02063F308
:1088E000000281F8F02091F8182163F3000281F86A
:1088F0001821114A9FED0A7B1370104B83ED007B0A
:108900000F4B236028B1BDE810400E490E4825F0FA
:1089100025BABDE810400C4825F02EBAAFF3008010
:10892000FFFFFFFFFFFFFFFFC13D0020803C002055
:10893000D24F0020903B0020D14F0020381C002057
:10894000A0BB0D0029D00300081C0020000000007F
:108950002DE9F04F8FB00DF137010446DFF8E0A0AC
:10896000DFF8E0800DF136000BF000FD9DF83630A9
:108970009DF837B00B930AF057FFDAF80060A6FBBA
:10898000085629A3D3E9002300278146314628460B
:10899000FEF7B6FBCDE90777069420F07F44DAF8BE
:1089A0000400234B0593A0FB08011FA3D3E9002378
:1089B000FEF7A6FB1F4B20F07F40A4FB03310722EC
:1089C00002FB0411CDE90370E81A66EB01014FF4D4
:1089D0007A720023FEF794FB0097CDE901404B46E5
:1089E0000B985A4603210AF005FE10F0FD0404D04E
:1089F0006FF08B000FB0BDE8F08F0F480F4A0023D7
:108A00001DF086F820B9DAF80C000FB0BDE8F08F41
:108A10009DF837209DF836000094234603210AF084
:108A20007DFE6FF07300E5E78D49FD1A0700000039
:108A3000BDD503008D49FD1A343E0020447B0B0058
:108A40004C3E002000CA9A3B38B50F4D04460AF050
:108A5000EBFEA9680AF0EAFE696803460B48B3FB1F
:108A6000F4F4A1FB00011C4405A3D3E90023FEF7A5
:108A700047FB20F07F40844294BF0020012038BD96
:108A80008D49FD1A070000004C3E002000CA9A3BA9
:108A9000F0B5C468636883B00546002B63D116F057
:108AA000DFFD002016F002FE0021084616F0F0FD62
:108AB00000222521082016F02FFE454B019301A826
:108AC00016F012FE434940F25B6016F0B7FE237ABF
:108AD000C3F3420262F306132046237215F0BAFD77
:108AE00014F0EAFC58BB637A9B071FD127682E68F5
:108AF000384615F043F906446A6806F10901012079
:108B000016F0E4FF17F0A2F820460DF0C1FF811C1B
:108B10003246C9B2384615F03FF9054670BB2046CB
:108B200015F0D4F888B9002003B0F0BD012014F08E
:108B300041F94178821C007816F068FFD6E7607A28
:108B400010F0030018BF0120F1E7234A234924480D
:108B500040F22C431EF0BFFF404080F311884FF0DD
:108B6000030002DFDFE793F820309A0797D01D4813
:108B7000214616F033FD16F01BFED4E7164A1A49BB
:108B8000174840F214431EF0A6FF184B0721A5FB1F
:108B9000030301FB05310CA3D3E90023FEF7B0FA70
:108BA0001349024613481EF096FF404080F3118897
:108BB0004FF0030002DF1048214616F00FFD16F0BB
:108BC000F7FD6FF08B00AFE700CA9A3B0000000092
:108BD000D6BE898E55555500E0050500A4F8040061
:108BE00038F7040021DF0300B8F704008D49FD1AAF
:108BF000900605006406050025E203000000000061
:108C00002DE9F041C468A2894FF6FF739A4282B001
:108C100000F0C780054616F045F82B89628AE08A85
:108C20001A4492B21044637FA28280B2411CE18256
:108C30005E064FF00001618204F1180100F18C80A2
:108C400003F03F000B46A17F009004F11F0013F0DA
:108C50002BFC0646D4E90B231344D4E90D02002172
:108C60000244E1626163A16AA26394F872208B42BC
:108C700028BF0B4612F00402236377D016F0F0FCF5
:108C8000002016F013FD201D16F02EFD2389A17A79
:108C900040F25B6043EA014116F0D0FD304615F02A
:108CA0008DF82146584816F099FC962016F002FFE0
:108CB00094F85A2094F85B00C2F3C003002102F03C
:108CC000070200F0070016F01FFE204616F04CF8D1
:108CD00027682E68384615F051F806446A6806F190
:108CE0000901002016F0F2FE804616F083FF0020F6
:108CF00016F09AFF236B94F85B0003F13002A36B2C
:108D000000F00700012103EB420516F043FD454446
:108D1000054494F85B0000F00700022824D00428E2
:108D20000CBF4FF4BC73282301211D4416F034FD01
:108D3000284416F051FFA18903313246C9B23846A2
:108D400015F02AF8054698BB204614F0BFFFD0B9AD
:108D5000002002B0BDE8F0810A4603F03F03E18B3A
:108D600013F0EEFB064675E71823DDE7D4E917019B
:108D700009F0C2F9002881D194F8723043F004035D
:108D800084F872307AE7214A2149224840F255138B
:108D90001EF0A1FE404080F311884FF0030002DF77
:108DA000D6E71D48214616F019FC16F001FDCFE765
:108DB000164A1A49174840F24B131EF08CFE184B06
:108DC0000721A5FB030301FB05310DA3D3E9002314
:108DD000FEF796F91349024613481EF07CFE404008
:108DE00080F311884FF0030002DF1048214616F08F
:108DF000F5FB16F0DDFC6FF08B00AAE7AFF3008007
:108E000000CA9A3B00000000C1EF030008070500FC
:108E1000A4F8040038F7040021DF0300B8F70400C9
:108E20008D49FD1A5C07050064060500FDDE0300A0
:108E30002DE9F0472DED028B9FED498B4A4E84B012
:108E400004464FF02003EFF3118783F31288BFF33A
:108E50006F8FD4F8C8508DB9022104F1E00024F0DE
:108E6000C6FE002843D100238DED008B029304F150
:108E7000D00239463D481DF029FBE2E7D4F8CC206A
:108E80002B68C4F8C830954208BFC4F8CC30D4F879
:108E9000E03043F00203C4F8E030EB6823F0040351
:108EA00043F00103EB606B6887F31188BFF36F8FAA
:108EB000284698474FF02003EFF3118983F3128877
:108EC000BFF36F8FEB68990723F0010219D4EA60B2
:108ED000D4F8E03023F00203C4F8E03089F31188BD
:108EE000BFF36F8FDB05ACD41DF0D0F9A9E704F117
:108EF000D80500220121284625F07FF80028F8D166
:108F0000B1E7306823F00303EB600028E0D00027CE
:108F1000D0F80080BA460028DAD04268954201466F
:108F20000BD1016897B972683160824200D17160DB
:108F300040F808AB1CF0C6FD3946B8F1000F0BD065
:108F4000D8F8002040460F469046E4E73960726842
:108F5000824208BF7760EBE74246F3E7AFF3008059
:108F6000FFFFFFFFFFFFFFFF644E0020E94F0020DF
:108F700007B50C4B1B7883B100F03CFC0378013B38
:108F8000092B0AD8084B00930023ADF8043007489A
:108F90000022002369461CF0FBFB002003B05DF8B3
:108FA00004FB00BFDC4E00200100D007D80D0020DC
:108FB0002DE9F041144FDFF8588004460E46002595
:108FC0003A780123AB4062401A42D8B208D004423A
:108FD00018F805100D48836814BF1B685B68984734
:108FE0000135032DECD15EB140F2E7304FF47A72D7
:108FF000002300EBC6300021FEF782F81DF0C8F90F
:109000003C70BDE8F08100BFDB4E002030EA040078
:10901000FB0D050037B51C491C481D4D1D4C24F0A7
:109020009DFE4FF0FF3269464FF0FF3328461CF09B
:1090300005FCBDF802109DF8000009B3164B1B7823
:10904000834205D123B14FF4FA710020FFF7B0FF3E
:10905000BDF802109DF80000FFF7AAFF9DF8002060
:109060002378934205D123B14FF4FA710020FFF722
:109070009FFFBDF804102078002908BF4FF4FA7153
:10908000FFF796FFCDE700BF9D900200F011002092
:10909000D80D0020DA4E0020DB4E002007B500235B
:1090A0000093ADF804304FF47A73ADF8023000F05D
:1090B000B3FE00280CBF012304238DF800300022EA
:1090C0000023694602481CF063FB03B05DF804FB13
:1090D000D80D0020024840F20D2200231CF090BE63
:1090E000F011002008B5034B1B780BB1FFF7F2FF1E
:1090F000002008BDDC4E002013B500230093ADF81E
:1091000004304FF4FA63ADF8023000F0E9FB0B24B1
:10911000C8B9013C0AD105238DF800300022002394
:1091200069460B481CF034FB02B010BD002140F62C
:10913000CD401DF02DF900F0D3FBE9E713288CBFDB
:1091400003230123E8E71D28F8D90223E4E700BF41
:10915000D80D002008B5FFF7CFFF00214FF4A03055
:109160001DF016F9FFF7B6FF014B01221A7008BD7A
:10917000DC4E002070B50C46084915461E46FEF729
:1091800029F940B9082C06D1054922463046A8479E
:1091900000EAE07070BD6FF00100FBE7E21105002E
:1091A0009802002001481CF08FBD00BF88020020FB
:1091B00007B524F05FFF4FF47A72A0FB020302FBB5
:1091C0000131C00B074A40EA4140106000234FF4D0
:1091D00000420548CDE900231DF056FB002003B0F6
:1091E0005DF804FBE8280020D00C0020014B187823
:1091F00000F02EBADD4E0020044B1A78824202D0D5
:109200001870FFF7F3BF0020704700BFDD4E00204D
:1092100010B524F02FFF0B4B5C6894B14FF47A72B9
:10922000A0FB020302FB0131074AC30B126843EAA9
:1092300041439B1AA34204D9BDE810400120FFF727
:10924000DBBF10BD98020020E828002008B524F0FC
:1092500011FF4FF47A72A0FB020302FB0131C00B35
:10926000044A40EA41401060BDE808400020FFF792
:10927000C3BF00BFE8280020014B1878704700BF2B
:10928000DD4E0020F8B5044610B900252846F8BD8B
:109290000378002BF9D00F4E0F4FBE420FD30D4E67
:1092A000BE42F2D2306824F0F5FA30B1356821467A
:1092B0002868FEF78FF80028E8D00436F0E7306819
:1092C00024F0E8FA18B135682B68A342DED00436E2
:1092D000E3E700BF282605003426050070B5194CC9
:1092E000194D8CB00022002303A920461CF0A6FAD9
:1092F00008B10CB070BD2B68059E5868DDE90312FB
:109300001DF08BFE0028EDDBFF238DF81830B6FA38
:1093100086F35B0907908DF8203024F0ABFE4FF404
:109320007A72A0FB020302FB0131C00B40EA41400C
:10933000C90B8DE8030006ABCDE90A010FCB00F0A5
:10934000A1F9CFE7080E0020A42900201FB50A4C80
:109350002468A46884420DD183F00103CDE9011291
:10936000039306480022002301A91CF011FA0448C7
:109370001CF0AAFC04B010BDA4290020080E002097
:10938000942900201FB50023CDE90233044B8DF84A
:109390000C0001A801931DF070FE05B05DF804FB00
:1093A000D4EE0400044B1A68044B9A4214BF6FF0C9
:1093B00012000020704700BFA4290020C0EE040066
:1093C00038B5044628B3144D2B6883421FD02BB107
:1093D000986818B183685B6803B198470F49104BD0
:1093E0008C4214BFED2100212A2200201DF02FFE07
:1093F00000280DDBA0682C6048B1836809491B6810
:1094000098472B68986883689B6803B19847002049
:1094100038BD6FF01200FBE7A4290020C0EE040065
:10942000EC2800204D93020038B5054648B906489F
:10943000FFF7C6FF041E02DB2846FFF7A3FF204606
:1094400038BD6FF01504FAE7C0EE0400F7B50C461E
:1094500015460D4901AA1E461EF06BFE68B1019B20
:109460006BB9012C0DD1094F224639463046A84729
:10947000002802DD3878FFF7D7FF03B0F0BD0020E9
:10948000FBE76FF01500F8E7070E0500F80B00206A
:109490000148FFF795BF00BFC0EE040008B50749BB
:1094A000074824F017FC074A002342F8043B013325
:1094B0002A2BFAD1BDE80840FFF7EABFDD9202008F
:1094C00094290020EC28002030B51C4C04EB00143B
:1094D0008FB0606883683A21DB68984758BB606842
:1094E0006189836804AD1B692A46984718BB95E8D3
:1094F00003000123069307AB83E803006389ADF8FB
:10950000243024F0B7FD4FF47A75A0FB053205FB3B
:109510000121DB0B43EA4143C90BCDE90A31237B2F
:109520008DF830300EAB13E90F008DE80F0006AB5D
:109530000FCB00F0CDF80FB030BD00BFB00200205F
:1095400010B5134CBFF35B8F54E8002F22F00101DC
:1095500044E800100028F7D1BFF35B8FD20702D593
:109560000020FFF7B1FFBFF35B8F54E8003F23F00B
:10957000020244E800210029F7D1BFF35B8F9B076B
:1095800004D5BDE810400120FFF79EBF10BD00BF0D
:10959000A8290020064901EB0012506830B1836809
:1095A0009B68114608310BB1024A1847704700BF4B
:1095B000B0020020B995020010B5104C0C1B102C05
:1095C0001BD8241124F026FA90B1BFF35B8F01233E
:1095D0000B4AA34052E8000F184342E8000100295B
:1095E000F8D1BFF35B8F0748BDE810401CF06CBB9F
:1095F0002046BDE81040FFF767BF10BDB80200204D
:10960000A8290020A0020020F8B50F4D0F4E761BB0
:1096100007460C4605EBC105C6F3C706A64201DCAA
:1096200000200CE02A683B689A4209D13C716B68C3
:1096300038461B68984718B1431E012BF0D9F8BD76
:1096400001340835EAE700BF88150500C815050094
:109650001FB50023CDE90233044B8DF80C0001A89F
:1096600001931DF00AFD05B05DF804FBD8EE04007F
:109670000268034B9A420CBF08300020704700BFBD
:10968000D8EE040084B030B589B00CAC84E80F008B
:10969000002301930CAD084B00930FCD02AC0FC417
:1096A00095E8030084E8030068461DF0E6FC09B075
:1096B000BDE8304004B07047DCEE04000268034BA4
:1096C0009A420CBF08300020704700BFDCEE040057
:1096D00084B030B58BB00EAC84E80F00002301934A
:1096E0000EAD084B00930FCD02AC0FC495E80F00F0
:1096F00084E80F0068461DF0C0FC0BB0BDE83040A8
:1097000004B07047E0EE04000268034B9A420CBFBD
:1097100008300020704700BFE0EE04001FB50023B2
:10972000CDE90233044B8DF80C0001A801931DF024
:10973000A4FC05B05DF804FBE4EE040082B038B58B
:1097400004A981E80C00054611481BF0DDFD044624
:10975000A0B16B68012B0CD0022B05D0A3B9BDE8DA
:10976000384002B01DF09FBC1DF0A4FC002820462C
:10977000F5DCBDE8384002B01DF08EBC6FF004008F
:10978000BDE8384002B070476FF08500F8E700BFD1
:10979000CA0E050082B010B502A981E80C0004468B
:1097A0000B481BF0B1FD78B16368022B04D0002098
:1097B000BDE8104002B070471DF07CFC0028CCBF13
:1097C000002001206060F2E76FF00400F0E700BFC6
:1097D000CA0E05001FB50023CDE90233044B8DF8F6
:1097E0000C0001A801931DF048FC05B05DF804FBD6
:1097F00024EF04000268034B9A420CBF083000209B
:10980000704700BF24EF040008B500F0DBFBBDE8A3
:109810000840014924F08BBAD002002007B508485F
:1098200024F038F848B14FF4F0120023CDE90023BA
:109830000448002200231DF027F803B05DF804FB64
:1098400058EA0400080D002008B5FFF711FF10B911
:109850006FF0850008BDFFF70FFD38B10138C0B2C9
:109860000128F5D8034824F04CFC01E0FFF7D6FFAF
:109870000020EFE7080D002037B5104CA5682D211A
:10988000EB6820469847B8B92D212B696A462046D7
:10989000984788B90A4C00982378834204D0C0B214
:1098A0002070FFF797FF38B901F05CFE23789842EB
:1098B00002D0184601F05CFE03B030BD58EA040047
:1098C000DE4E002008B5054823F0E4FF18B1FFF78D
:1098D000A5FF002008BD6FF01200FBE758EA040066
:1098E000014B1878704700BFDE4E00201FB50023E3
:1098F000CDE90233044B8DF80C0001A801931DF053
:10990000BCFB05B05DF804FB2CEF040008B5BDF806
:1099100008101944012908DC3BB1054B12780548B1
:109920001A701CF0D1F9012008BD6FF00600FBE7AA
:10993000DF4E002050030020014B1878FFF774BD64
:10994000DF4E00201FB50C240294044C0194BDF896
:109950001840009422F029F804B010BD044F0020F4
:109960001FB510240294044C0194BDF818400094D3
:1099700022F01BF804B010BDF44E002007B5064BD2
:1099800000930649064805234FF43E721CF0A2F9E5
:10999000002003B05DF804FB30EF0400F057002016
:1099A0002012002070B50F4D0F4E8AB00022002308
:1099B000694628461BF042FF044608B10AB070BD54
:1099C0002146182204A824F034FD10230DEB0301D6
:1099D00020460596CDF818D0ADF81C3007F0F8F801
:1099E000E4E700BF380E00204CEF0400F0B50E4E47
:1099F0000E4D0F4F87B00C490022002328461BF064
:109A00001DFF044608B107B0F0BD21461822684684
:109A100024F00FFD0C2369462046CDE90176ADF810
:109A20000C3007F0D5F8E6E7044F0020680E002060
:109A3000D8EF04001FB50E490E4840F6CD42002372
:109A40001BF0A6FE044670B110F10B0F08D10022E6
:109A50000023694607481BF0F1FEFFF7EBFF0446C1
:109A6000204604B010BD0449044824F060F9F7E72B
:109A7000F44E0020380E0020F002002020120020BA
:109A800030B589B001AD85E807000F4840F6CD42FA
:109A9000002329461BF07CFE044680B110F10B0F19
:109AA0000AD10022002305A907481BF0C7FE95E84C
:109AB0000700FFF7E5FF0446204609B030BD034923
:109AC000034824F034F9F7E7680E0020E002002094
:109AD0002012002030B50378012B85B018D0032B5D
:109AE0000FD063BB4378174D03F00701DC08012357
:109AF0008B4081782A5DDBB231B113432B55FFF7E0
:109B000099FF002005B030BD22EA03022A55F6E78E
:109B10008DF80530D0F80130CDF80630D0F805309A
:109B2000CDF80A30C27AB0F80930ADF80E308DF8B1
:109B3000042004AB13E90700FFF7A2FFE1E76FF091
:109B40008500DFE7F44E0020014B1970704700BF1D
:109B5000134F0020014B186000207047AC290020F3
:109B6000084A094B12781B78002062F30700074A65
:109B700012785B0062F30F20DBB282B063F3174010
:109B800002B07047104F0020144F0020114F0020EA
:109B900013B50C4B1C6894B1FFF7E2FF8DF804007D
:109BA000C0F30723C0F307408DF805308DF8060099
:109BB00001990548234602B0BDE81040184702B09D
:109BC00010BD00BFAC2900203426050010B50020D0
:109BD00003F0ECFC044610B9024801F081FD204678
:109BE00010BD00BF6003002010B5084804F0F2FF6C
:109BF000074805F06DF9074B074800241C70074B18
:109C000001221A701CF060F8204610BD9803002055
:109C100088030020124F002078030020104F0020FE
:109C20000C4B07B5187030B10B481CF04DF80020F4
:109C300003B05DF804FB01900849012001AA04F07B
:109C40009FFE019810B1132120F009FD04F020FAC5
:109C5000EDE700BF114F0020B8030020C7710400DA
:109C60000B4BB1FA81F010B540090C461870FFF7A4
:109C70003DFE3C2C0AD1074B1B783BB1064B0748F5
:109C800001221A70BDE810401CF01EB810BD00BFC4
:109C9000144F0020114F0020124F0020B803002065
:109CA00070B503788AB004460E4607AD032B20D862
:109CB000DFE803F002191B1D11492846FDF794FB4C
:109CC000059563780493A3780393E378029323794B
:109CD000019363790093A3790A4A1E2130461CF050
:109CE000ABFE0AB070BD0849E7E70849E5E7084957
:109CF000E3E7084A0A2128461CF09EFEE0E700BF81
:109D0000640F05008D0F05006B0F0500720F050035
:109D10007C0F0500860F050010B588B020F02FFDE0
:109D20006946FFF7BDFF0024074B20461C70FFF774
:109D3000DDFD064B1B7823B1054B06481C701BF05C
:109D4000C3FF08B010BD00BF144F0020114F00200A
:109D5000124F0020B803002070B5204E204B306811
:109D6000B2881C781F49B3798AB003AD0390ADF86F
:109D7000102000202A46AB7107F0F0FF3146072281
:109D8000284624F0EFFC184B0646D0B1ACB90320AE
:109D90002246214601241C700023CDE90602CDE9AC
:109DA0000815ADF814308DF8163000931A46194690
:109DB00005A804F03BF90AB070BD1320A022F021E1
:109DC000E8E70A4D18700FCD05AC0FC42B6823606F
:109DD0000749009633460322EAE700BF5A110500FF
:109DE000124F0020F59D0200134F002050ED04009B
:109DF00038F0040038B507220C460649054624F021
:109E0000B1FC28B12B682360AB88A380AB79A37128
:109E100038BD00BF5A110500014B1878704700BFCC
:109E2000144F0020004870473426050073B5194CC4
:109E3000194EB442254602D36FF0120008E02B6899
:109E40009B68043433B9154C2368AB4211D1002010
:109E500002B070BD9847C0F307238DF804008DF859
:109E60000530C0F30743C0B28DF806300028E0D0BB
:109E7000E9E723B11B685B680BB1002098472B68AA
:109E800025605B68002BE2D0012002B0BDE8704085
:109E9000184700BF3426050038260500B0290020E9
:109EA00007B5094B01911B68834207D19DF8063025
:109EB00033B903B05DF804EBFFF7B8BFFFF7B6FFA7
:109EC000002003B05DF804FBB029002070B5094CF8
:109ED000094D0A4EAC42234603D3BDE87040FFF75C
:109EE000A5BF1B68DB680434002BF3D030469847CD
:109EF000F0E700BF3426050038260500A19E0200C9
:109F0000054B1B6823B11B6813B11B6803B11847CD
:109F10006FF01200704700BFB029002008B5044858
:109F200001F048F8002818BF6FF0150008BD00BF09
:109F30005D9F0200084B1B780B2B4FF001000AD8E5
:109F4000984010F4CD6F05D110F4016F0CBF0120C3
:109F50000020704702207047A60C00200A2808B590
:109F6000024613D00A4B0B491870FFF7E3FF022893
:109F70000AD10B78032A08BF43F001030B70BDE838
:109F8000084005481BF0A0BE0023F7E708BD00BF4E
:109F9000A60C0020154F0020C803002007B5064B73
:109FA0000093064906480A234FF440721BF092FEC4
:109FB000002003B05DF804FB54F00400E85A0020D0
:109FC00008130020004870470813002010B5094C02
:109FD0000A44914200D110BD11F8013B58400309D9
:109FE0000001E35CC0B2434018091B01205CDBB2F6
:109FF0005840EEE7D70F0500014B1B68184700BF1C
:10A00000D803002030B585B004460D46102200214B
:10A01000684624F00EFA02238DF802302A46044BDB
:10A020000193214668461CF097FD05B030BD00BF86
:10A03000F99F020080B505460E46174698461CF06B
:10A04000DBF9034624F0DEFBDFF81890044649F8FC
:10A050000030424630463946A84754F8090001F01E
:10A0600083FF00BF080000002DE9F047058B044680
:10A070002807904611D4022905F0070540F0CD804D
:10A0800020461DF0FEFB78B10138218B042811D841
:10A09000DFE800F0C3106D85950001290CBF45F085
:10A0A000100545F02005258388F31188BFF36F8FD5
:10A0B000BDE8F08701F0070AAA4500F0A680002756
:10A0C000B9463E46A368002B00F0BD8041F0080170
:10A0D000218388F31188BFF36F8FA168002900F0F6
:10A0E000BB800D68002900F0B780D1F804803346AA
:10A0F00052462046C047002D76D02B6829461D4683
:10A10000F0E701F007035A1F012A1BD8002221F0B3
:10A110000701062B276889B2C4E9002209D13B4612
:10A1200003E0628B013262831B68002BF9D141F09E
:10A130000201218320461DF0A4FB00287BD041F0C2
:10A14000200177E0042B0AD121F0070189B2218395
:10A1500020461DF096FB10B141F020012183218B98
:10A1600001F0070AAA4550D00027B946AAE723699B
:10A1700021F0070141F00601062DD3F8009021835C
:10A180002DD1B9F1000F40D041F00801218388F3AF
:10A190001188BFF36F8F3A492046C84729E021F064
:10A1A0000701236941F0040189B2042DD3F804901A
:10A1B0002183E6D000273E464FF0040A82E721F0D3
:10A1C0000701236941F0050189B2052DD3F80890F4
:10A1D0002183D6D000273E464FF0050A72E70027BC
:10A1E0003E464FF0060A6DE72B4687E7B9F1000FB0
:10A1F000D1D14FF02003EFF3118883F31288BFF31E
:10A200006F8F238B23F008032383258BEA062ED53B
:10A2100025F01003238305F007056669218B002EC6
:10A22000BFF66FAF00232768C4E9003321F00701B0
:10A2300041F001012183218B01F0070AAA454FF06B
:10A2400000097FF43FAF002F9BD041F0080121832C
:10A2500088F31188BFF36F8F002FC7D03D68394650
:10A260003346524620461DF038FB2F46F4E7AB0636
:10A270007FF51AAF25F02003238305F00705FFE6DD
:10A280000779040008B504464FF02002EFF311836C
:10A2900082F31288BFF36F8F18F078FC204602F02B
:10A2A000FDF803481DF0FAF801F0CEFFFCE700BF0F
:10A2B000E70F050018F09CBC2DE9F7430F46064652
:10A2C0000821C06ADFF850901DF0A0FC3C68241AF9
:10A2D00080463C6004EA0905AC4203D8002003B084
:10A2E000BDE8F08308236A46214630461DF001FC94
:10A2F0000028F4D1694630461DF092FC40B1BDF80B
:10A300000230BDF804203C6005EA090513441D44F1
:10A31000A4EB0804E0E700BF0000FFFF2DE9F047D1
:10A32000044688B000F11407384623F092FBA06A77
:10A330008368DB689847E06228B96FF01505284606
:10A3400008B0BDE8F087A06A8368DB6898470368B7
:10A35000013B1F2BF1D8A06A216805AA22F0F5FC69
:10A360000028EAD1A589002DE7D0069BB5FBF3F2C2
:10A3700003FB1255002DE0D1E389012BDDD9E36AFF
:10A38000009593F804904FF0FF334FF0FF323846BA
:10A390001BF0AEFAE06A08211DF038FCA84606461C
:10A3A000E3891FFA85FA534508D8E389434523D149
:10A3B00038461BF017FB6FF02C05C0E7A1892B0472
:10A3C000891B13FA81F14A460823204600911DF0AB
:10A3D000DEFB78B1694620461DF099FB08F10108C3
:10A3E000009908234A4620461FFA88F81DF0CFFB43
:10A3F0000028DAD00135D3E753450BD10099082363
:10A400004A46891B20461DF0C2FB18B96946204602
:10A410001DF07DFB69462046FFF74EFF054618B14B
:10A4200038461BF0DFFA8AE7009B63604FEA134867
:10A430004FEA0848C4F80880D4E9011399420FD3C1
:10A44000082301AA20461DF054FB05460028E7D149
:10A4500001AB13F8012B914533D10135082DF8D10B
:10A4600063681B0C1B046946204600931DF04FFBDC
:10A47000A38900994A4620461DF089FB051ECFDBC3
:10A48000636876D006EB03084FF6FF79A389CDF811
:10A4900000801FFA88F29B1B9A422ED3002361682A
:10A4A000002B43D0090C09040091204669461DF099
:10A4B0002EFB009920461DF08FFB0546002D74D021
:10A4C000AEE701A920461DF0ABFB626810B9921BF4
:10A4D0006260B1E7BDF80850BDF80610E06AC4F844
:10A4E000088029441DF092FB40449042A060EED1C8
:10A4F000002DECD06FF01C0568E0082303AA41464C
:10A5000020461DF0F6FA0546002889D103A9204609
:10A510001DF086FB30B1BDF80C304B4502D1BDF8C3
:10A5200010300BB1B044B1E70123B8E720461DF06D
:10A5300053FB054600287FF473AF6368264AA18960
:10A5400013400B44A3EB460363601340A360204613
:10A550001DF04AFCB1E75B1A4A4620461DF017FB86
:10A56000051EFFF65DAF08D0E26AA36812681344C7
:10A57000A360D4E901318B42EDD86168A38901EB76
:10A5800046029A429AD1DFF85080A26801EA080395
:10A590009A4293D020461DF01FFB054600287FF409
:10A5A0003FAF636803EA0803A360A389A288A3EB13
:10A5B00046039A4206D038461BF014FA012323744E
:10A5C0000025BCE620461DF0F8FB054638461BF08A
:10A5D00009FA002DF2D0B2E60000FFFF2DE9F04F9E
:10A5E0001D46037C89B0044689469046002B00F046
:10A5F000BE80C26A082110461DF008FB294682462B
:10A6000010461DF003FBA389A3EB8A039D42074676
:10A6100000F2B0801DB1B8F1000F00F0AB806368AC
:10A62000039304AA03A92046DDF80CB01DF030FB0B
:10A630000646002864D1BDF810304B4505D062684D
:10A64000039B9A42EDD1E5B95AE004A920461DF0DA
:10A65000E7FA0028F3D0BDF81200BDF8143075B148
:10A660009D420ED14FEA1B41090401442B4642464C
:10A6700020461DF059FA002803DC064640E0002B76
:10A680003ED0002F40D104F1140301934FF0FF326C
:10A690000198DFF8E8B04FF0FF331BF029F9E389A8
:10A6A0009E4261D0D4E90123F9188A422FD3ADF834
:10A6B0001A3006A8FF238DF81E30ADF81890ADF8BB
:10A6C0001C501DF05BFAA1682B46424620461DF047
:10A6D00029FB29468246E06A1DF098FAA2680244E6
:10A6E000A260BAF1000F07D106A920461DF054FB65
:10A6F000002814BF8246AA4601981BF073F95646FB
:10A70000304609B0BDE8F08F5744BFB2BBE7E06AFE
:10A7100008211DF07BFA4FF6FF73ADF818300021C9
:10A720008DF81E30A389ADF81C10111802EA0B0237
:10A730001A44101A606006A8ADF81A101DF01EFA2F
:10A7400006A920461DF028FB211D20461DF0DFF93B
:10A75000636803EA0B03A36020461DF045FB8246B5
:10A760000028C9D101369AE76FF01B0AC4E76FF0E1
:10A770000C06C5E76FF01506C2E700BF0000FFFF3B
:10A78000014B0360002070475CF0040070B5114B72
:10A790001C680D46DCB1104B196800238B4202DBAC
:10A7A0006FF0010070BD224612F8106B864202D095
:10A7B00001331446F2E7E06810B96FF01200F1E7D8
:10A7C00023F068F80028F8D02C600020EAE76FF04A
:10A7D0000C00E7E7DC0300205CF0040070B588B0F3
:10A7E00005460C46C0B269461646FFF7CFFF002863
:10A7F0001BDB0098C8B14368029383682268019507
:10A80000CDE903360023CDE906230593C5681DF085
:10A8100023FC6DB12846084901AA22F09AFA07984C
:10A8200008B9059B236008B070BD6FF01500FAE70A
:10A830006FF01200F7E700BF5B800400F0B40C4B30
:10A840000C4E5F6A0C4BB34203D36FF08500F0BC33
:10A8500070475D68BD4209D31C693CB195F802C0E0
:10A860000579AC4502D12346F0BC18472433EAE70A
:10A87000B42900205D1000205D1000202DE9F04774
:10A88000134CDFF85080DFF8509005460E4617460F
:10A89000444503D36FF08500BDE8F0876268D9F8BE
:10A8A00024309A4212D3A36983B1907829798842DF
:10A8B00005D13A4631462846BDE8F0471847527957
:10A8C000012A03D13A463146284698472434DFE727
:10A8D0005D1000205D100020B42900202DE9F0411A
:10A8E0000B4CDFF8308005460E461746444502D330
:10A8F0006FF0850009E063690BB92434F6E73A4646
:10A900003146284698470028F7D1BDE8F08100BFBE
:10A910005D1000205D10002010B5044622F058F8AC
:10A9200010F1780F00D050B9054A20461DF0B7FB52
:10A93000D2F8C43023EA0003C2F8C430002010BDAE
:10A94000B4290020024B00221A605A60704700BFF1
:10A950006F2A002070B50B4B0B4CA34201D3002093
:10A9600070BD196A1E7F00220439D5B2AE4201D8EB
:10A970002433F2E7013211F832508542F5D101203B
:10A98000EEE700BF5D1000205D10002008B509480B
:10A990000378C3F341130A3350F823303BB100F17D
:10A9A000080200F110019847C043C00F08BD1846C7
:10A9B000FCE700BFB429002004282DE9F14FDFF89F
:10A9C000A09004460F4616D001282DD1DFF88C80C8
:10A9D00098F8B93043B300F065FD1F4D4D4520D2C6
:10A9E000D5F820B04FF0000A2B7F5FFA8AF6B34209
:10A9F00004D82435F2E7FFF7A5FFE7E70BEBC6061F
:10AA00000AF1010A307921F0E3FF024630791DF0A6
:10AA100046FBD8F8C430002A23EA0003C8F8C43043
:10AA2000E2DA002388F8B9300B4D4D4508D30B4BC3
:10AA30001B6A6BB13946204601B0BDE8F04F18479C
:10AA4000EB681BB13A462146284698472435ECE787
:10AA500001B0BDE8F08F00BF5D100020B4290020D8
:10AA60005D10002073B5C4B263060D468DF8074033
:10AA700007D02046FFF76EFF78B10D4B93F8BA0070
:10AA800058B10B4E204655B116F0CEF8F3691BB104
:10AA90000DF1070108209847012002B070BD16F0A3
:10AAA000EBF8F369002BF7D00DF107010920F2E76D
:10AAB000B429002073B586788DF800600379427957
:10AAC0001C4C43EA0223ADF80230C378304603F051
:10AAD00003038DF804301DF0E2FAD4F8C4301842B4
:10AAE00005460BD0304600F0BFFC3046FFF714FFA0
:10AAF00022F090FF10B996201BF064FC684616F017
:10AB00006FF810F1780F03D010B1002002B070BDC3
:10AB10009DF8000016F0ECF810F1780F01D0002835
:10AB2000F3D1D4F8C43001202B4384F8B900C4F821
:10AB3000C430EBE7B42900202DE9F047A34EB369F8
:10AB400004460F461546FBB9237803F01F03012B7B
:10AB500000F09D80022B00F0048133BB94F90000CB
:10AB60002A686178002834DA062912D008292BD007
:10AB7000D9B901231370517096F8C3305B0043F0CC
:10AB80000103137002232AE198470028DCD100203A
:10AB90000DE06288100A011F0129844605D90728A3
:10ABA00003D8716AD2B20C781CB96FF01500BDE8F9
:10ABB000F0874E78664503D19A4200F00B8101334D
:10ABC0002144F0E70B780AE196F8BA3013700123BC
:10ABD00005E101390829E8D801A353F821F000BFA5
:10ABE00079AC0200ABAB020087AC0200ABAB020059
:10ABF00005AC0200ABAB0200ABAB0200ABAB02009A
:10AC000011AC0200A07815F0D9FF0028BFD0CCE726
:10AC10006388756A63BBFFF795FE638886F8BA3070
:10AC2000F369002BB3D06A4903209847AFE76B78EC
:10AC3000042B10D0052B11D0022B04D16F7963881F
:10AC4000BB4208BF01202B781D442B78002BEED18E
:10AC50000028AAD0DFE795F80380F4E76388BB42B9
:10AC6000F1D1B8F1000FEED12846FFF723FFEAE754
:10AC7000FF270020B846E8E76388012B95D1002321
:10AC800086F8C33083E76388012B8ED1F8E796F806
:10AC9000BA30D5F800C0002B87D0756AA38894F825
:10ACA00004E02A46107800283FF47FAF517802294B
:10ACB00004D192F80480F04500F293800244F1E759
:10ACC0008CF800208CF80120396060E7154494E08E
:10ACD0000B2A7FF46AAF00274FF0FF08C146BA463F
:10ACE00006E06B78042B0FD0052B21D02B781D4468
:10ACF0002B78002BF5D1F36913B151460720984703
:10AD0000002F7FF444AF50E795F80280A38895F8B0
:10AD100003909845EAD163889945E7D1B8F1070FC8
:10AD20001CD806EB0803AA4683F8BB900127DDE791
:10AD3000A3884345DAD1A3784B450AD0AF7838468B
:10AD400000F092FB3846FFF7E7FDB0FA80F77F0985
:10AD5000CCE72846FFF7AEFE0746C7E7AA4600271E
:10AD6000C4E794F900206378002A18DA002B7FF4F6
:10AD70001CAF24792D6863060AD02046FFF7EAFD50
:10AD800000283FF412AF96F8BA30002B3FF40DAF15
:10AD90002946204615F090FF00236B70F2E6012B48
:10ADA00008D0032B7FF401AF6388002B7FF4FDAE46
:10ADB000012103E0618800297FF4F7AEA088FFF746
:10ADC00051FE00287FF4E3AEEFE600BFB429002077
:10ADD0006E2A0020022829607FF4F4AE4B883B6085
:10ADE000D5E694F9000062780028BFF671AF002A1A
:10ADF0003FF466AF0A2A7FF4D8AE2A78002A3FF4DF
:10AE0000D4AE697804297FF461AFA9788B427FF4CE
:10AE10005DAF072B96BF9B19002393F8BB308CF8CE
:10AE20000030D4E613B5164C237DF3B9E268A1686F
:10AE3000019201AB80201DF040F9019AA3681344F0
:10AE4000A360E3689B1AE3606BB962B12369E2888F
:10AE50009A4208DD94F8C82093FBF2F102FB11330B
:10AE60000BB90123237502B010BD00231A46194601
:10AE70008020237502B0BDE8104015F063BF00BF0D
:10AE8000B429002030B585B0002302460D46019359
:10AE9000002858D1002935D108220B460DEB0201BC
:10AEA00021F0AFFD002804DA802015F0BDFE05B0CA
:10AEB00030BD2A4C029A2260039A626004F1380283
:10AEC000A2609DF90820BDF80E302575002AC4E95E
:10AED00003550ADB802B04D9802015F0A5FE002045
:10AEE000E3E713B1C4E90333E1E7FFF74FFD0028BF
:10AEF000DAD0E28823699A42D4BFE260E360FFF7C8
:10AF000091FFD4E7154CD4E90215002D01AB04DC08
:10AF100021F077FD0028CADAC6E72A4621F071FD44
:10AF20000028D9DB019AA3681344A360E3689B1A45
:10AF3000E360002BBBD104F13803A360FFF726FDCB
:10AF40000028DCD1B0E78028B1D1044BDA68002AB0
:10AF5000D5D11B7D002BD2D1A9E700BFB429002099
:10AF6000054B064A9A62064ADA62064A1A63064A9C
:10AF700058629A6100207047B429002039AB020062
:10AF80003DA80200DDA802007DA8020010B5084B14
:10AF900093F8B84034B900F0E3F830B1FFF7E0FFC0
:10AFA000204610BD6FF07700FBE74FF0FF30F8E769
:10AFB000B42900202DE9F341414D04466F6A414810
:10AFC0004FF0FF324FF0FF331AF092FC95F8B86063
:10AFD000002E6ED13C482C62E86115F0CDFF15F0D3
:10AFE000BBFD041E49DB00F081FA041E45DB7B78C3
:10AFF000012B61D1FB79002B5ED0684685F8C83003
:10B00000ADF802308DF804608DF8006015F0E8FDB1
:10B01000041E32DB802768468DF8007015F0E0FDD5
:10B02000041E2ADB2949304615F092FF041E24DB5A
:10B030002649384615F08CFF041E1EDB244CDFF831
:10B040009480444520D3002015F052FE041E14DBEA
:10B05000D5F8C430802043F00103C5F8C43015F0A2
:10B0600047FE041E09DBD5F8C43043F48033C5F82D
:10B07000C430012385F8B830002412481AF0B2FC1D
:10B08000204602B0BDE8F081276A0026227FF3B295
:10B090009A4201D82434D4E707EBC30257F833109F
:10B0A000107915F055FF01360028EFD04FF0FF342E
:10B0B000E3E76FF07704E0E76FF01504DDE700BF2A
:10B0C000B4290020C40D0020B9A9020085AE0200F9
:10B0D0005D1000205D10002030B51F4B8BB005AA1D
:10B0E00003F1100518685968144603C40833AB42CD
:10B0F0002246F7D11B7823701022002101A823F0EB
:10B1000098F912220021154823F093F9102101A883
:10B1100021F0A0FE00281BDD0828B8BF0820093850
:10B1200001AB0E491A18002012F8013F0AAC04EBDB
:10B13000131403F00F0328336B44013014F8144C3C
:10B1400013F8143C0C7008284B7001F10201EBD18C
:10B1500002480BB030BD00BF10100500164F002094
:10B160002DE9F04F704C87B04FF0000B00264FF0E8
:10B17000011AB0463546B14623782BB96B4B0234E1
:10B180009C42F3D1684833E06378052B1BD8DFE895
:10B1900003F09003C8901D3B402304A88DF810B025
:10B1A000ADF812308DF814B021F0FDFB40B108234A
:10B1B00004A8ADF8123021F0F6FB08B1ADF812B0DA
:10B1C000BDF81230E37123781C44D5E7E378002BF7
:10B1D000F9D1A3787BB108F101085FFA88F8F2E7AA
:10B1E0006B689C4209D02435514B9D42F8D3002016
:10B1F00007B0BDE8F08F4F4DF6E7AB68002BEAD003
:10B20000414620469847E6E7002DF0D000222B7FEC
:10B210009A42ECD2296AA07801EBC2010B799842DC
:10B2200001D00132F3E70127E07800F003008DF848
:10B230001400207994F805C040EA0C20ADF8120003
:10B2400094F902000028FBB228DA07F110004FF051
:10B25000010C0CFA00F010EA0A0F26D143F080002E
:10B260008DF8100004A8CDE90213019221F09BFB98
:10B27000DDE90121039BC0B99DF81020A27012F0F6
:10B28000800F18BF10330A7118BFDBB24FF00102F4
:10B2900014BF9A40BA404AEA020A94E70120B84033
:10B2A00010EA0A0F01D11846DAE70137102FBBD197
:10B2B000B7E7032E1DD1FFF70FFF074668B1FCF774
:10B2C0009BF8102809D13846A31C07F1100250F84A
:10B2D000041B43F8041B9042F9D123786FF002015C
:10B2E000E218091B04EB5303D14213D50136F6B221
:10B2F00069E7002EF1D1B9F1000F3FF478AFA4EB6C
:10B30000090389F80230C3F3072389F8033089F869
:10B310000480EBE702F801BC13F8010902F8020D02
:10B32000E2E7A1464FE700BF001000205D100020BB
:10B330005D1000205D10002010B5094B00211A4659
:10B340001C78844205D15C681CB1482303FB0120B2
:10B3500010BD0131042903F14803F1D10020F7E7C2
:10B36000802A00202DE9F34150F8303C10F8346C6D
:10B370001033044610D1036950F8282C990739D5A9
:10B38000EAB913F0040304D11A46194630461CF0FA
:10B3900094FE002344F8303C54F8303C10330BD07A
:10B3A00054E9097554F81C8C22F034FB00284CD069
:10B3B0002C48214622F0BBFC02B0BDE8F08150F8D9
:10B3C0002C1C01AB30461CF078FE10B16FF0150359
:10B3D000E0E7019A54F82C3C134444F82C3C54F810
:10B3E000283C9B1A44F8283C54F8243C134444F865
:10B3F000243CD1E750F82C1C01AB304615F01EFD63
:10B400000028E3D1019D54F82C3C2B4444F82C3CFB
:10B4100054F8283C5B1B44F8283C54F8243C2B444B
:10B4200044F8243C002DB4D0304615F0ABFDB5FBFC
:10B43000F0F303FB1055002DABD154F8283C002B42
:10B44000A7D0304615F042FDA6E744F8200CA4F141
:10B4500018001AF037FB002DAED042463946304670
:10B46000A847A9E7E027002010B54FF02003EFF32D
:10B47000118483F31288BFF36F8FFFF75DFF50B124
:10B480004368103307D16FF08B03436000F1340140
:10B49000034822F04CFC84F31188BFF36F8F10BD7A
:10B4A000E027002070B50F4C04254FF02003EFF388
:10B4B000118683F31288BFF36F8F6368103307D14F
:10B4C0006FF08B030848636004F1340122F02FFC15
:10B4D00086F31188BFF36F8F013D04F14804E4D176
:10B4E00070BD00BF802A0020E027002070B50A4C04
:10B4F0000A4E00253146204622F0ECFB0122A4F141
:10B5000018001146013522F062FB042D04F14804B5
:10B51000F0D1002070BD00BFB42A002065B3020046
:10B520001FB507240294044C0194BDF81840009400
:10B5300020F03BFA04B010BDA70C002010B5084C59
:10B5400086B024788DF81740012402940DF1170479
:10B550000194BDF82040009420F027FA06B010BDF9
:10B56000AE0C0020014B1878704700BFAE0C0020D5
:10B5700000B589B064288DF8070019D80E4B182241
:10B580001870002102A822F054FF0C4B03930DF118
:10B590000703049302A901230020ADF8143005F03D
:10B5A00017FB10F1800F08BF002009B05DF804FB05
:10B5B0006FF01500F9E700BFAE0C002040F1040069
:10B5C0002DE9F0410F4B1C6805460E461746ACB1FD
:10B5D0004FF0FF324FF0FF330B481AF089F96368E0
:10B5E0003246D3F8088029463B462046C0470446E9
:10B5F00005481AF0F7F92046BDE8F0816FF0010424
:10B60000F9E700BFA02B0020B00D0020002303604D
:10B61000044B5A6812B9C3E90000704710605860C3
:10B62000704700BFA42B0020014B1860704700BF7B
:10B63000A02B002030B585B000230546CDE90233AC
:10B6400001904FF0FF330C484FF0FF321AF050F9E1
:10B650000A4B1C684CB9284600F0CEF80446064850
:10B660001AF0C0F9204605B030BD636820461B685B
:10B6700001A998472468EDE7B00D0020A42B002015
:10B680001FB5CDE9010103924FF0FF330A484FF097
:10B69000FF321AF02DF9094B1C682CB906481AF034
:10B6A000A1F9204604B010BD636820461B6801A9BB
:10B6B00098472468F1E700BFB00D0020A42B0020BC
:10B6C000024B0022C3E90022704700BFA42B0020D8
:10B6D000024B0022C3E90022FFF7F2BFAC2B00208F
:10B6E00070B51B4C1B4E0546B44212D31A4E1B4874
:10B6F0004FF0FF324FF0FF331AF0FAF834687CB1A4
:10B70000286854F8141C143CFBF764FEC8B1646943
:10B71000F5E721682868FBF75DFEA8B11434E3E77C
:10B7200000226A61726805F114033AB9C6E9003370
:10B7300000240A481AF056F9204670BD1360736061
:10B74000F6E76FF01004F4E76FF01004F4E700BFC1
:10B75000ACEC04004CED0400AC2B0020B00D00203C
:10B760002DE9F74307460C4609B100230B601F4D36
:10B77000DFF8809000264D450FD31D4B1D6885B323
:10B7800055F8148C01AA41463846143D1CF0D1FCF2
:10B7900010B3D6B914BB2E461EE0D5F8008001AA1E
:10B7A000414638461CF0C5FC50B116B954B92E4676
:10B7B00006E03168002240461CF0BBFC0028F5D1B1
:10B7C0001435D8E7019B2360F1E731680022404639
:10B7D0001CF0AFFC0028DDD16D69D0E7019B236030
:10B7E000D9E7304603B0BDE8F08300BFACEC0400FD
:10B7F000AC2B00204CED0400F8B5184C184F064651
:10B800000025BC4208D3174B1C682CB3143CB6B9B6
:10B81000E368E3B96469F8E72EB9E3685BB92846E1
:10B8200014340546EDE72068002231461CF081FC07
:10B830000028F2D1F3E79847002DF0D1F0E7206817
:10B84000002231461CF075FC0028E1D1E2E7984760
:10B85000002D08BF0546DDE72846F8BDACEC040026
:10B860004CED0400AC2B002038B50C4D0C484FF0CB
:10B87000FF334FF0FF321AF03BF82B783BB9FFF75C
:10B8800027FF00F06DF8044610B901232B70002447
:10B8900003481AF0A7F8204638BD00BF284F002003
:10B8A000B00D00202DE9F047048FDFF8B0A001347F
:10B8B00098B080468946A4B200F10806651EADB274
:10B8C000B5F5004F47D04A2305AA294630461CF05B
:10B8D000BCFB04F57F543F34A4B207462146012344
:10B8E0000DF10B0230461CF0B0FB002F014603DCCB
:10B8F000002803DC2C46E1E7002816DCB8F83830D5
:10B90000AB4209D142466B1E22F8383F4FF400414A
:10B9100002233046FEF762FE294630461CF031FB1A
:10B92000214630461CF02DFBE4E707F160030DEBE8
:10B930000307002307F84C3C5246CDF8009003ABB8
:10B9400005A80396ADF810401CF029FC0028D1D0C2
:10B9500018B0BDE8F0870020FAE700BF0D820400B0
:10B960007FB50123694602200193FEF70FFF0446CD
:10B9700060BB02AA01A90220FEF730FF044610B105
:10B9800010F10C0F22D10399B1F5803F23D2009A18
:10B99000002394681846084484421AD30133082BC4
:10B9A000F9D10E4DA982EB825368AB602846D3686B
:10B9B000EB631CF0C5FC044640B9094E6E60284696
:10B9C000FFF724FE28466E60FFF72EFE204604B0E7
:10B9D00070BD9BB2E5E76FF02004F7E7B42B0020C1
:10B9E00018040020014B1868704700BF2C04002089
:10B9F000F0B5082289B01CF07BFECB6A03930B6B79
:10BA000004934B6B05938B6B0693CB6B0793134699
:10BA10006A460C460646002711461046CDE90177D6
:10BA200000971CF074FD3146054630461CF06FFD52
:10BA3000216B0391616B0491A16B0591E16B05444E
:10BA4000CDE90617104611461CF061FD314605444C
:10BA500030461CF05CFD0544206A0090606A01904D
:10BA6000A06A0290A06B0690E06B07903046CDE98B
:10BA7000047703971CF04BFD0544606A0090A06AB0
:10BA80000190E06A0290A06BD4F834C00490E06B9F
:10BA9000CDF80CC0CDE9050C206A079030461CF0AB
:10BAA00036FD0544E06A0090206B0190606B0290C7
:10BAB000206A0690A06A07903046CDE90477039784
:10BAC0001CF049FE236B0093636B0193A36B0293FD
:10BAD000E36B0393636A0693E36A07932D1A0823C3
:10BAE00030461CF038FE636B0093A36B0193E36B4D
:10BAF0000293236A0393636A0493A36ACDE905372B
:10BB0000236B07932D1A082330461CF024FEA36BE9
:10BB10000093E36BCDE90137636A0393A36A04934F
:10BB2000E36A0593636B07932D1A082330461CF0D4
:10BB300012FE2D1A10D40D4C35B90822314620467C
:10BB40001CF0E2FD01280FD0082322463146304682
:10BB50001CF001FE2D1AEFE7044A08233146304657
:10BB60001CF0D5FC2D18F8D409B0F0BD94F10400F8
:10BB70000449431E0F3013F8012F8A5C1A70834268
:10BB8000F9D170472D100500F0B5264E07460C463A
:10BB90000FCE8DB001AD0FC50FCE0FC596E80700D3
:10BBA00085E807003846002F38D0002C38D0381FE1
:10BBB0002146024610344B780D781B0443EA056396
:10BBC000CD782B438D78043143EA05238C4242F82B
:10BBD000043FF0D1144C04218A07036916D1C3F342
:10BBE0000742A55C1A0EA25C42EA0562C3F3072570
:10BBF000DBB2655DE35C42EA054242EA032221F0E2
:10BC0000030330336B4453F82C3C534050F8042F5B
:10BC1000013153402C290361DED101200DB0F0BD6C
:10BC20002046FBE764ED04002D10050030BFFFF750
:10BC3000FDBF00BF114B124A2DE9F041D518DFF8C6
:10BC40004C80013DB5FBF3F55D430E4B08EB03045F
:10BC5000013CB4FBF3F403FB04540E1B07460A49F2
:10BC6000304622F0BEFB701942460021083E22F009
:10BC7000E0FB7E6704F10800BDE8F08101000000F0
:10BC800000000000040000004CED0400080000006B
:10BC9000044B99689869884203D003494FF0805259
:10BCA0000A6070473C4E002004ED00E0134B9A6A96
:10BCB00012F0007F9A6A14BF1E201D2012F0807FB0
:10BCC0009A6A18BF1F2012F4002F9A6A18BF212009
:10BCD00012F4802F9A6A18BF222012F4003F9A6A49
:10BCE00018BF232012F4803F9A6A6FEA02426FEA7B
:10BCF00012429A6218BF2420704700BF00ED00E096
:10BD000010B5194B0246986A9C6A10F4805F14BF04
:10BD10001720162014F4006F9C6A18BF1820A40581
:10BD200009D5986B986A000404D51AB19A6A22F46E
:10BD300000429A6219200C4B9A6A12F4806F9A6A38
:10BD400018BF1A20D2050CD49B6A13F4005F18BFE9
:10BD50001C20054A936A43F47F43936200230B70CF
:10BD600010BD1B20F5E700BF00ED00E010B51C4B37
:10BD70000246986A9C6A10F0100F14BF1120102020
:10BD800014F0080F9C6A18BF1220A40709D5586B3D
:10BD9000986A000604D51AB19A6A22F080029A6263
:10BDA00013200F4B9A6A12F0010F9A6A18BF1420E1
:10BDB00012F0200F9A6A18BF1520D40658BF9B6A4C
:10BDC000074B9A6A920642BF5A6A22F400525A629C
:10BDD0009A6A42F0FF029A6200230B7010BD00BF06
:10BDE00000ED00E070B5444B5B689CB00646C3F3C1
:10BDF0000803002585F31188BFF36F8F02F07F40A1
:10BE0000B0F17F4F11D102F00C0008280DD01007BF
:10BE10004CBF0E4601250022033B8DF80720032B63
:10BE200005D8DFE803F01E5C60592E46F3E70024D6
:10BE30009DF807309BB96822314602A822F0D1FA5A
:10BE4000099B002D53D0C3F3080222B96FEA532394
:10BE50006FEA4323099302A920461DF0A3FB1CB0FF
:10BE600070BD254BDA6A9107E1D4DA6A002ADEDB7D
:10BE7000DA6A5200DBD55A69B16942F480725A61BC
:10BE8000BFF34F8FBFF36F8F5A6931F8021C22F452
:10BE900080725A61BFF34F8FBFF36F8F4DF60272FE
:10BEA000914209D09A6AD2B242B10DF10701012044
:10BEB000FFF75CFF0446BBE73468B9E79A6A12F4FF
:10BEC0007F4F05D00DF107010120FFF719FFF1E7C2
:10BED0009B6AB3F5803FAAD3FFF7E8FEEAE70DF1CE
:10BEE00007010020E4E70DF107010020EDE723F44E
:10BEF000FF7323F00103ADE700ED00E0024A536950
:10BF000043F010035361704700ED00E0EFF3088049
:10BF1000EFF3098101B57246FFF764FF01BD00BF71
:10BF2000044800232021C2180133302B82F800136B
:10BF3000F9D1704700E100E0FEF7BCF9202080F362
:10BF4000118808484FF40061401880F30988EFF326
:10BF500014800221084380F31488BFF36F8F00F030
:10BF6000D5F8000000750020084B9B6883420BD178
:10BF7000EFF3058343B1064B5A6842F080525A6092
:10BF80005A6A22F400425A621AF03CBA3C4E00202F
:10BF900000ED00E0094A0A4993680968D967094930
:10BFA00098674B6843F080534B60002383F31188FC
:10BFB000BFF36F8F9368D86F704700BF3C4E00206F
:10BFC000340B050000ED00E021498A6882F8C1E0E9
:10BFD0004FF030001044EFF3098C80E8F01F1EF0A2
:10BFE000100F03D102F1800080EC108A202080F332
:10BFF0001288BFF36F8F174F4FF000668A698A600F
:10C000003E604FF0740414192068134C206092F9BC
:10C01000C1E0906F0023936780F311881EF0100F2A
:10C0200003D00023E1EE103A03E002F1800090EC2F
:10C03000108AEFF3148323F0040383F31488BFF30F
:10C040006F8F02F1300090E8F01F8CF30988704781
:10C050003C4E002004ED00E0F42B00201EF0040F05
:10C060000CBFEFF30880EFF30980816911F8021C1F
:10C070000229FFD001B51DF097FA01BD40B200289A
:10C0800007DB044A4109012300F01F00834042F806
:10C090002130704700E100E040B200280CDB43098A
:10C0A000064900F01F0020330122824041F823207E
:10C0B000BFF34F8FBFF36F8F704700BF00E100E009
:10C0C000054B420900F01F0053F82220012303FA18
:10C0D00000F01040704700BF00E100E040B20028CF
:10C0E000A8BF00F1604001F10101B8BF064B4FEA63
:10C0F0004111ACBF00F5614000F00F00C9B2B4BF00
:10C10000195480F80013704714ED00E0144A08B584
:10C11000144B22F07F029A60BFF34F8FBFF36F8FF3
:10C12000D3F8882022F47002C3F88820D3F888203E
:10C1300042F4A002C3F888204FF04042C3F83422F2
:10C14000BFF34F8FBFF36F8F0023E1EE103A19F06A
:10C150005BF91AF0CDF9FFF7E3FE19F0A3F900BF80
:10C160000070020000ED00E042F8203C009B42F825
:10C170001C3C019B42F8183C0A49029B42F8143CC3
:10C180004FF0807342F8043C21F00101002342F893
:10C19000081C203A83674FF47D430265C0F8C03025
:10C1A000704700BF35A00200114B9B6883421BD132
:10C1B000EFF30580C0B94FF02002EFF3118182F355
:10C1C0001288BFF36F8F1A7B22F002021A73EFF30B
:10C1D000148323F0040383F31488BFF36F8F81F378
:10C1E0001188BFF36F8F70476FF01500704700BF65
:10C1F0003C4E00200023E1EE103AEFF3148323F0CD
:10C20000040383F31488BFF36F8FBFF36F8F094B61
:10C210009860094B406F1860104681F3098800212F
:10C2200063B681F31188BFF36F8F00220023FDF7FF
:10C2300001FF00BF3C4E0020F42B002001491022DA
:10C240000A60704710ED00E072B6404080F311883C
:10C25000BFF36F8FBFF34F8F30BF62B6BFF36F8FE7
:10C26000704700BF72B6494081F31188BFF34F8F0A
:10C2700020BF80F3118862B6704700BF01B5EFF3AD
:10C280000580A0F110004FEAC0000449014409C92B
:10C290009847BDE8014002490847000080EA0400D1
:10C2A00091BC0200024B034A0348012100F030B860
:10C2B000000004200000002040F20400084AC2F8F8
:10C2C00098000B6823F01F03034343F01003C2F8E8
:10C2D0009C308B6843F00103C2F8A030704700BF68
:10C2E00000ED00E0044B0522C3F89420BFF34F8F0C
:10C2F000BFF36F8F704700BF00ED00E0BFF35F8FAB
:10C30000024B0022C3F89420704700BF00ED00E00C
:10C3100010B5034C012322781DF065F9207010BD83
:10C32000294F0020F0B5454D2C68082C85B000F24F
:10C330008280FFF7E3FF00200C2684420DD1404DA0
:10C34000404F2C706846FEF71BFA00240646A642B2
:10C350000AD1FFF7C7FF00201CE0696806FB001147
:10C36000FFF7ACFF0130E8E7009800EB04114FEA5B
:10C37000041CCB683B40B3F5000F4AD00CD8B3F592
:10C38000001F30D0B3F5800F38D0B3F5801F12D026
:10C390006FF0150005B0F0BDB3F1807F42D0B3F16E
:10C3A000007FF5D150F80C3088684A681DF00BF911
:10C3B00040F4802009E050F80C3088684A681DF08D
:10C3C00002F940F0885040F4302003902878072884
:10C3D000CDE90123DCD801A9FFF770FF2B780133E9
:10C3E0002B700134B3E750F80C3088684A681DF0B0
:10C3F000EAF840F0885040F40020E6E750F80C30AE
:10C4000088684A681DF0DFF840F0007040F40030A2
:10C41000DBE750F80C3088684A681DF0D4F840F02B
:10C420008270D2E750F80C3088684A681DF0CBF86B
:10C4300040F08870C9E74FF0FF30ABE74CF20400E2
:10C44000294F00200000F0FF08B504481BF026F833
:10C45000404080F311884FF0020002DF2D110500EB
:10C4600008B50649064821F00701C1F1005202F55E
:10C4700080221BF0AEF9002008BD00BFC39300204E
:10C48000F82B0020044A0123C2F840354FF08042C7
:10C490000020C2F87835704700E001404FF080433B
:10C4A000C0B2C3F81C05BFF34F8F0549054BCA68DE
:10C4B00002F4E0621343CB60BFF34F8F00BFFDE790
:10C4C00000ED00E00400FA0520B1034B800143F0C9
:10C4D00001031847704700BFF0ED040008B5044899
:10C4E00021F0D8F900280CBF6FF01200002008BD21
:10C4F0007CE90400F8B5594EBFF35B8F3468BFF395
:10C500005B8F14F0010450D0554F564C564D574890
:10C510003A4621461BF054FFE0B32022294620462C
:10C5200022F020F90028F2D000274FF0FF324FF020
:10C53000FF33012000F04AFB00F10C050221044604
:10C54000284620F0D6F93E23037042234370012190
:10C55000284620F0CEF9082303704121284620F018
:10C56000C8F9054600F8017BB7B14022002121F04F
:10C5700060FFBFF35B8F56E8003F23F0010346E8FE
:10C580000032002AF7D1BFF35B8F2046BDE8F840A8
:10C5900000F064BF1F27C8E734491DF0BEF8203102
:10C5A00005F121001DF0B9F8E3E7BFF35B8F3368B5
:10C5B000BFF35B8F9B0750D529492C481CF0BDFD6C
:10C5C000002811DBBFF35B8F264933682648BFF391
:10C5D0005B8F13F0040F01F12002214B18BF0146BD
:10C5E00010461BF03AFF04464FF0FF324FF0FF3386
:10C5F000012000F0EBFA00F10C0702210546384655
:10C6000020F077F93E23037022234370012138463E
:10C6100020F06FF9092303702121384620F069F9D1
:10C62000034601309CB91F221A70FF21202221F0FD
:10C6300000FFBFF35B8F56E8003F23F0020346E89C
:10C640000032002AF7D1BFF35B8F28469EE7002215
:10C6500006491A701DF061F8EBE7F8BD042C0020C4
:10C660006CF204002A4F0020741105004A4F00208C
:10C6700070B5214CBFF35B8F2368BFF35B8FDA0784
:10C6800006460D4601D50C2070BD012931D8BFF3F7
:10C690005B8F54E8003F43F0020244E80021002988
:10C6A000F7D1BFF35B8F9B07EDD4144831461DF0E3
:10C6B00034F8134806F120011DF02FF8BFF35B8F0B
:10C6C00075B154E8003F43F0040344E80032002A07
:10C6D000F7D1BFF35B8F0B4800F036FA0020D3E7A9
:10C6E00054E8003F23F0040344E80032002AF0D06D
:10C6F000F6E71220C8E700BF042C00204A4F0020B4
:10C700006A4F00203004002070B5067E044676B9DA
:10C71000C3681D8842F22602954245D00FD842F2E6
:10C72000010295424FD042F225039D4213D02A4B7D
:10C73000D3F85C3120465B69BDE87040184742F28F
:10C740005E039D42F3D103210C3020F0F1F8E06844
:10C7500090F840102EE003210C3020F0E9F820463C
:10C7600013F05AFEBFF35B8F1C4B1A68BFF35B8F4D
:10C77000920707D50C26314642F225001CF0A9FF8E
:10C78000002070BDBFF35B8F53E8002F42F0010122
:10C7900043E800100028F7D1BFF35B8FD307E9D43B
:10C7A0000F4800F0D1F9E6E703210C3020F0C0F883
:10C7B000E0683146FFF75CFF0646204613F02CFE8A
:10C7C00031462846DAE7DA7802F07F02DA701A7921
:10C7D00022F001021A71AAE700000020042C0020B8
:10C7E000300400202DE9F341254CBFF35B8F1F4639
:10C7F0002368BFF35B8F1646DA0705462BD520B9B1
:10C800006FF0010002B0BDE8F08101A91BF0B5FC9A
:10C810001C4980460246284621F0B4FFE8B9BFF320
:10C820005B8F2368BFF35B8FC3F3C0081B0712D471
:10C83000A4F1D405072229463846B047062895BFFB
:10C8400044F8D48C0723C5F80380B0FBF3F094BF01
:10C8500085F80780E8710020D4E728460A49424657
:10C8600021F090FF05460028CAD1102204F18C0166
:10C870003846B0470028EEDB044484F88C50EAE7E1
:10C88000D4000020790F0500941105002DE9F04136
:10C8900088B09C79DDF838805D791E79DF7893F86F
:10C8A00002C093F801E01B78B8F1000F0ED0CDE97B
:10C8B0000638CDE904CE1346CDE90267CDE900453F
:10C8C000084A1AF0B9F808B0BDE8F081CDE905E3EF
:10C8D000CDE9037C1346CDE90156034A00941AF0D2
:10C8E000ABF8F0E799110500BD11050070B50446DD
:10C8F0008CB01E461546A2B129B10A4602A80421F1
:10C900001AF051FD02A900912B462246242103A8CA
:10C91000FFF7BCFF109A314603A8FEF751FE0CB09A
:10C9200070BD0346044A242103A81AF085F80028A4
:10C93000F0DA6FF01500F2E7DE11050007B5064BDF
:10C940000648DA79C2EBC202009200221146FFF7D4
:10C95000CDFF03B05DF804FB00000020790F050057
:10C9600030B504468DB0154692B129B10A4602A8E9
:10C9700004211AF018FD02A900912B462246242119
:10C9800003A8FFF783FF03A81BF0CFFB0DB030BD5A
:10C990000346054A242103A81AF04EF80028F2DACB
:10C9A0006FF01500F2E700BFDE11050007B5009338
:10C9B00013460A4601460348FFF798FF03B05DF8A7
:10C9C00004FB00BFB01305000A4601460148FFF70B
:10C9D000C7BF00BFB013050007B5009313460A4652
:10C9E00001460348FFF782FF03B05DF804FB00BF78
:10C9F000AA13050007B5009313460A4601460348EB
:10CA0000FFF774FF03B05DF804FB00BF9B13050044
:10CA100007B500220346009103481146FFF766FF61
:10CA200003B05DF804FB00BFA213050007B50022A8
:10CA30000346009103481146FFF758FF03B05DF825
:10CA400004FB00BF9411050008B5024819F03CF939
:10CA5000002008BD4004002070B51D4CBFF35B8F63
:10CA60002368BFF35B8F13F0010F254622D094F8A3
:10CA70008C30A4F1D40613B9164800F001FEF37906
:10CA8000D3B1BFF35B8F2368BFF35B8F5A0701D429
:10CA900000F07AFDBFF35B8F55E8003F23F480324E
:10CAA00045E800210029F7D1BFF35B8FDB0301D5F7
:10CAB000FFF7CAFF002009E001F03AF830B9F37936
:10CAC000002BDED101F078F80028DAD070BD00BF6D
:10CAD000D40000204A11050007B5009313460A460A
